{
  "contractName": "FintechCoin",
  "abi": [
    {
      "constant": true,
      "inputs": [],
      "name": "mintingFinished",
      "outputs": [
        {
          "name": "",
          "type": "bool"
        }
      ],
      "payable": false,
      "type": "function",
      "stateMutability": "view"
    },
    {
      "constant": true,
      "inputs": [],
      "name": "name",
      "outputs": [
        {
          "name": "",
          "type": "string"
        }
      ],
      "payable": false,
      "type": "function",
      "stateMutability": "view"
    },
    {
      "constant": false,
      "inputs": [
        {
          "name": "_spender",
          "type": "address"
        },
        {
          "name": "_value",
          "type": "uint256"
        }
      ],
      "name": "approve",
      "outputs": [
        {
          "name": "",
          "type": "bool"
        }
      ],
      "payable": false,
      "type": "function",
      "stateMutability": "nonpayable"
    },
    {
      "constant": true,
      "inputs": [],
      "name": "totalSupply",
      "outputs": [
        {
          "name": "",
          "type": "uint256"
        }
      ],
      "payable": false,
      "type": "function",
      "stateMutability": "view"
    },
    {
      "constant": false,
      "inputs": [
        {
          "name": "_from",
          "type": "address"
        },
        {
          "name": "_to",
          "type": "address"
        },
        {
          "name": "_value",
          "type": "uint256"
        }
      ],
      "name": "transferFrom",
      "outputs": [
        {
          "name": "",
          "type": "bool"
        }
      ],
      "payable": false,
      "type": "function",
      "stateMutability": "nonpayable"
    },
    {
      "constant": true,
      "inputs": [],
      "name": "decimals",
      "outputs": [
        {
          "name": "",
          "type": "uint8"
        }
      ],
      "payable": false,
      "type": "function",
      "stateMutability": "view"
    },
    {
      "constant": false,
      "inputs": [
        {
          "name": "_to",
          "type": "address"
        },
        {
          "name": "_amount",
          "type": "uint256"
        }
      ],
      "name": "mint",
      "outputs": [
        {
          "name": "",
          "type": "bool"
        }
      ],
      "payable": false,
      "type": "function",
      "stateMutability": "nonpayable"
    },
    {
      "constant": false,
      "inputs": [
        {
          "name": "_value",
          "type": "uint256"
        }
      ],
      "name": "burn",
      "outputs": [],
      "payable": false,
      "type": "function",
      "stateMutability": "nonpayable"
    },
    {
      "constant": false,
      "inputs": [
        {
          "name": "_spender",
          "type": "address"
        },
        {
          "name": "_subtractedValue",
          "type": "uint256"
        }
      ],
      "name": "decreaseApproval",
      "outputs": [
        {
          "name": "success",
          "type": "bool"
        }
      ],
      "payable": false,
      "type": "function",
      "stateMutability": "nonpayable"
    },
    {
      "constant": true,
      "inputs": [
        {
          "name": "_owner",
          "type": "address"
        }
      ],
      "name": "balanceOf",
      "outputs": [
        {
          "name": "balance",
          "type": "uint256"
        }
      ],
      "payable": false,
      "type": "function",
      "stateMutability": "view"
    },
    {
      "constant": false,
      "inputs": [
        {
          "name": "_owner",
          "type": "address"
        },
        {
          "name": "_value",
          "type": "uint256"
        }
      ],
      "name": "burnFrom",
      "outputs": [],
      "payable": false,
      "type": "function",
      "stateMutability": "nonpayable"
    },
    {
      "constant": false,
      "inputs": [],
      "name": "finishMinting",
      "outputs": [
        {
          "name": "",
          "type": "bool"
        }
      ],
      "payable": false,
      "type": "function",
      "stateMutability": "nonpayable"
    },
    {
      "constant": true,
      "inputs": [],
      "name": "owner",
      "outputs": [
        {
          "name": "",
          "type": "address"
        }
      ],
      "payable": false,
      "type": "function",
      "stateMutability": "view"
    },
    {
      "constant": true,
      "inputs": [],
      "name": "symbol",
      "outputs": [
        {
          "name": "",
          "type": "string"
        }
      ],
      "payable": false,
      "type": "function",
      "stateMutability": "view"
    },
    {
      "constant": true,
      "inputs": [],
      "name": "contractVersion",
      "outputs": [
        {
          "name": "",
          "type": "uint8"
        }
      ],
      "payable": false,
      "type": "function",
      "stateMutability": "view"
    },
    {
      "constant": false,
      "inputs": [
        {
          "name": "_to",
          "type": "address"
        },
        {
          "name": "_value",
          "type": "uint256"
        }
      ],
      "name": "transfer",
      "outputs": [
        {
          "name": "",
          "type": "bool"
        }
      ],
      "payable": false,
      "type": "function",
      "stateMutability": "nonpayable"
    },
    {
      "constant": false,
      "inputs": [
        {
          "name": "_spender",
          "type": "address"
        },
        {
          "name": "_addedValue",
          "type": "uint256"
        }
      ],
      "name": "increaseApproval",
      "outputs": [
        {
          "name": "success",
          "type": "bool"
        }
      ],
      "payable": false,
      "type": "function",
      "stateMutability": "nonpayable"
    },
    {
      "constant": true,
      "inputs": [
        {
          "name": "_owner",
          "type": "address"
        },
        {
          "name": "_spender",
          "type": "address"
        }
      ],
      "name": "allowance",
      "outputs": [
        {
          "name": "remaining",
          "type": "uint256"
        }
      ],
      "payable": false,
      "type": "function",
      "stateMutability": "view"
    },
    {
      "constant": false,
      "inputs": [
        {
          "name": "newOwner",
          "type": "address"
        }
      ],
      "name": "transferOwnership",
      "outputs": [],
      "payable": false,
      "type": "function",
      "stateMutability": "nonpayable"
    },
    {
      "anonymous": false,
      "inputs": [
        {
          "indexed": true,
          "name": "owner",
          "type": "address"
        },
        {
          "indexed": true,
          "name": "burner",
          "type": "address"
        },
        {
          "indexed": false,
          "name": "value",
          "type": "uint256"
        }
      ],
      "name": "BurnFrom",
      "type": "event"
    },
    {
      "anonymous": false,
      "inputs": [
        {
          "indexed": true,
          "name": "owner",
          "type": "address"
        },
        {
          "indexed": true,
          "name": "burner",
          "type": "address"
        },
        {
          "indexed": false,
          "name": "value",
          "type": "uint256"
        }
      ],
      "name": "BurnApproval",
      "type": "event"
    },
    {
      "anonymous": false,
      "inputs": [
        {
          "indexed": true,
          "name": "burner",
          "type": "address"
        },
        {
          "indexed": false,
          "name": "value",
          "type": "uint256"
        }
      ],
      "name": "Burn",
      "type": "event"
    },
    {
      "anonymous": false,
      "inputs": [
        {
          "indexed": true,
          "name": "to",
          "type": "address"
        },
        {
          "indexed": false,
          "name": "amount",
          "type": "uint256"
        }
      ],
      "name": "Mint",
      "type": "event"
    },
    {
      "anonymous": false,
      "inputs": [],
      "name": "MintFinished",
      "type": "event"
    },
    {
      "anonymous": false,
      "inputs": [
        {
          "indexed": true,
          "name": "previousOwner",
          "type": "address"
        },
        {
          "indexed": true,
          "name": "newOwner",
          "type": "address"
        }
      ],
      "name": "OwnershipTransferred",
      "type": "event"
    },
    {
      "anonymous": false,
      "inputs": [
        {
          "indexed": true,
          "name": "owner",
          "type": "address"
        },
        {
          "indexed": true,
          "name": "spender",
          "type": "address"
        },
        {
          "indexed": false,
          "name": "value",
          "type": "uint256"
        }
      ],
      "name": "Approval",
      "type": "event"
    },
    {
      "anonymous": false,
      "inputs": [
        {
          "indexed": true,
          "name": "from",
          "type": "address"
        },
        {
          "indexed": true,
          "name": "to",
          "type": "address"
        },
        {
          "indexed": false,
          "name": "value",
          "type": "uint256"
        }
      ],
      "name": "Transfer",
      "type": "event"
    }
  ],
  "bytecode": "0x606060405260038054600160a860020a03191633600160a060020a0316179055610da98061002e6000396000f300606060405236156101045763ffffffff7c010000000000000000000000000000000000000000000000000000000060003504166305d2035b811461010957806306fdde0314610130578063095ea7b3146101ba57806318160ddd146101dc57806323b872dd14610201578063313ce5671461022957806340c10f191461025257806342966c6814610274578063661884631461028c57806370a08231146102ae57806379cc6790146102cd5780637d64bcb4146102ef5780638da5cb5b1461030257806395d89b4114610331578063a0a8e46014610344578063a9059cbb14610357578063d73dd62314610379578063dd62ed3e1461039b578063f2fde38b146103c0575b600080fd5b341561011457600080fd5b61011c6103df565b604051901515815260200160405180910390f35b341561013b57600080fd5b610143610400565b60405160208082528190810183818151815260200191508051906020019080838360005b8381101561017f578082015183820152602001610167565b50505050905090810190601f1680156101ac5780820380516001836020036101000a031916815260200191505b509250505060405180910390f35b34156101c557600080fd5b61011c600160a060020a0360043516602435610437565b34156101e757600080fd5b6101ef6104a3565b60405190815260200160405180910390f35b341561020c57600080fd5b61011c600160a060020a03600435811690602435166044356104a9565b341561023457600080fd5b61023c6105d3565b60405160ff909116815260200160405180910390f35b341561025d57600080fd5b61011c600160a060020a03600435166024356105d8565b341561027f57600080fd5b61028a6004356106f6565b005b341561029757600080fd5b61011c600160a060020a036004351660243561079a565b34156102b957600080fd5b6101ef600160a060020a0360043516610894565b34156102d857600080fd5b61028a600160a060020a03600435166024356108af565b34156102fa57600080fd5b61011c610a45565b341561030d57600080fd5b610315610aca565b604051600160a060020a03909116815260200160405180910390f35b341561033c57600080fd5b610143610ad9565b341561034f57600080fd5b61023c610b10565b341561036257600080fd5b61011c600160a060020a0360043516602435610b15565b341561038457600080fd5b61011c600160a060020a0360043516602435610beb565b34156103a657600080fd5b6101ef600160a060020a0360043581169060243516610c8f565b34156103cb57600080fd5b61028a600160a060020a0360043516610cba565b60035474010000000000000000000000000000000000000000900460ff1681565b60408051908101604052600b81527f46696e74656368436f696e000000000000000000000000000000000000000000602082015281565b600160a060020a03338116600081815260026020908152604080832094871680845294909152808220859055909291907f8c5be1e5ebec7d5bd14f71427d1e84f3dd0314c0f7b2291e5b200ac8c7c3b9259085905190815260200160405180910390a350600192915050565b60005481565b600080600160a060020a03841615156104c157600080fd5b50600160a060020a03808516600081815260026020908152604080832033909516835293815283822054928252600190529190912054610507908463ffffffff610d5516565b600160a060020a03808716600090815260016020526040808220939093559086168152205461053c908463ffffffff610d6716565b600160a060020a038516600090815260016020526040902055610565818463ffffffff610d5516565b600160a060020a03808716600081815260026020908152604080832033861684529091529081902093909355908616917fddf252ad1be2c89b69c2b068fc378daa952ba7f163c4a11628f55a4df523b3ef9086905190815260200160405180910390a3506001949350505050565b601281565b60035460009033600160a060020a039081169116146105f657600080fd5b60035474010000000000000000000000000000000000000000900460ff161561061e57600080fd5b600054610631908363ffffffff610d6716565b6000908155600160a060020a03841681526001602052604090205461065c908363ffffffff610d6716565b600160a060020a0384166000818152600160205260409081902092909255907f0f6798a560793a54c3bcfe86a93cde1e73087d944c0ea20544137d41213968859084905190815260200160405180910390a282600160a060020a031660007fddf252ad1be2c89b69c2b068fc378daa952ba7f163c4a11628f55a4df523b3ef8460405190815260200160405180910390a350600192915050565b600080821161070457600080fd5b5033600160a060020a0381166000908152600160205260409020546107299083610d55565b600160a060020a03821660009081526001602052604081209190915554610756908363ffffffff610d5516565b600055600160a060020a0381167fcc16f5dbb4873280815c1ee09dbd06736cffcc184412cf7a71a0fdb75d397ca58360405190815260200160405180910390a25050565b600160a060020a033381166000908152600260209081526040808320938616835292905290812054808311156107f757600160a060020a03338116600090815260026020908152604080832093881683529290529081205561082e565b610807818463ffffffff610d5516565b600160a060020a033381166000908152600260209081526040808320938916835292905220555b600160a060020a0333811660008181526002602090815260408083209489168084529490915290819020547f8c5be1e5ebec7d5bd14f71427d1e84f3dd0314c0f7b2291e5b200ac8c7c3b925915190815260200160405180910390a35060019392505050565b600160a060020a031660009081526001602052604090205490565b60008082116108bd57600080fd5b600160a060020a0383166000908152600160205260409020548211156108e257600080fd5b600160a060020a038084166000908152600260209081526040808320339094168352929052205482111561091557600080fd5b50600160a060020a0382166000908152600160205260409020543390610941908363ffffffff610d5516565b600160a060020a03808516600090815260016020908152604080832094909455600281528382209285168252919091522054610983908363ffffffff610d5516565b600160a060020a038085166000908152600260209081526040808320938616835292905290812091909155546109bf908363ffffffff610d5516565b600055600160a060020a038082169084167f3c7611a5be35512cb20a6f2f039b47efb0d70f9c538e3886fa3f3e9c32af924f8460405190815260200160405180910390a382600160a060020a03167fcc16f5dbb4873280815c1ee09dbd06736cffcc184412cf7a71a0fdb75d397ca58360405190815260200160405180910390a2505050565b60035460009033600160a060020a03908116911614610a6357600080fd5b6003805474ff00000000000000000000000000000000000000001916740100000000000000000000000000000000000000001790557fae5184fba832cb2b1f702aca6117b8d265eaf03ad33eb133f19dde0f5920fa0860405160405180910390a150600190565b600354600160a060020a031681565b60408051908101604052600481527f46494e4300000000000000000000000000000000000000000000000000000000602082015281565b600181565b6000600160a060020a0383161515610b2c57600080fd5b600160a060020a033316600090815260016020526040902054610b55908363ffffffff610d5516565b600160a060020a033381166000908152600160205260408082209390935590851681522054610b8a908363ffffffff610d6716565b600160a060020a0380851660008181526001602052604090819020939093559133909116907fddf252ad1be2c89b69c2b068fc378daa952ba7f163c4a11628f55a4df523b3ef9085905190815260200160405180910390a350600192915050565b600160a060020a033381166000908152600260209081526040808320938616835292905290812054610c23908363ffffffff610d6716565b600160a060020a0333811660008181526002602090815260408083209489168084529490915290819020849055919290917f8c5be1e5ebec7d5bd14f71427d1e84f3dd0314c0f7b2291e5b200ac8c7c3b92591905190815260200160405180910390a350600192915050565b600160a060020a03918216600090815260026020908152604080832093909416825291909152205490565b60035433600160a060020a03908116911614610cd557600080fd5b600160a060020a0381161515610cea57600080fd5b600354600160a060020a0380831691167f8be0079c531659141344cd1fd0a4f28419497f9722a3daafe3b4186f6b6457e060405160405180910390a36003805473ffffffffffffffffffffffffffffffffffffffff1916600160a060020a0392909216919091179055565b600082821115610d6157fe5b50900390565b600082820183811015610d7657fe5b93925050505600a165627a7a7230582025d344ac3d91956d21ff55bb270ff6b15f2b9f284d63b671a44ae7f2c911e0350029",
  "source": "pragma solidity ^0.4.11;\n/* import \"./HumanERC20TokenInterface.sol\"; */\n/**\n   An extended version of the ERC20 Interface,\n   which specifies the Token `name`, `symbol` and amount of `decimal`s.\n*/\n/* contract FintechCoin is HumanERC20TokenInterface { */\n/*     function FintechCoin() */\n/*         HumanERC20TokenInterface(\"FintechCoin\", \"FFC\", 18) */\n/*     { */\n/*     } */\n/* } */\n\nimport \"zeppelin-solidity/contracts/token/MintableToken.sol\";\nimport \"zeppelin-solidity/contracts/ownership/Ownable.sol\";\n\nimport \"./ApprovedBurnableToken.sol\";\n\ncontract FintechCoin is Ownable, MintableToken, ApprovedBurnableToken {\n    uint8 public constant contractVersion = 1;\n\n    string public constant name = \"FintechCoin\";\n    string public constant symbol = \"FINC\";\n    uint8 public constant decimals = 18;\n\n\n    // TODO extractToken function to allow people to retrieve token-funds sent here by mistake.\n\n    // TODO ERC223-interface\n}\n",
  "sourcePath": "/home/qqwy/Programming/Resilia/fintech_fans/fintechfans_marketplace/contracts/FintechCoin.sol",
  "schemaVersion": "1.0.0",
  "updatedAt": "2017-10-16T09:27:07.652Z"
}