{
  "contractName": "FintechFansCrowdsale",
  "abi": [
    {
      "constant": true,
      "inputs": [],
      "name": "foundersWallet",
      "outputs": [
        {
          "name": "",
          "type": "address"
        }
      ],
      "payable": false,
      "type": "function",
      "stateMutability": "view"
    },
    {
      "constant": true,
      "inputs": [],
      "name": "currentBonusRate",
      "outputs": [
        {
          "name": "",
          "type": "uint256"
        }
      ],
      "payable": false,
      "type": "function",
      "stateMutability": "view"
    },
    {
      "constant": true,
      "inputs": [],
      "name": "purchasedTokensRaisedDuringPresale",
      "outputs": [
        {
          "name": "",
          "type": "uint256"
        }
      ],
      "payable": false,
      "type": "function",
      "stateMutability": "view"
    },
    {
      "constant": true,
      "inputs": [],
      "name": "rate",
      "outputs": [
        {
          "name": "",
          "type": "uint256"
        }
      ],
      "payable": false,
      "type": "function",
      "stateMutability": "view"
    },
    {
      "constant": true,
      "inputs": [],
      "name": "endTime",
      "outputs": [
        {
          "name": "",
          "type": "uint256"
        }
      ],
      "payable": false,
      "type": "function",
      "stateMutability": "view"
    },
    {
      "constant": true,
      "inputs": [],
      "name": "cap",
      "outputs": [
        {
          "name": "",
          "type": "uint256"
        }
      ],
      "payable": false,
      "type": "function",
      "stateMutability": "view"
    },
    {
      "constant": false,
      "inputs": [],
      "name": "unpause",
      "outputs": [
        {
          "name": "",
          "type": "uint256"
        }
      ],
      "payable": false,
      "type": "function",
      "stateMutability": "nonpayable"
    },
    {
      "constant": true,
      "inputs": [],
      "name": "goal",
      "outputs": [
        {
          "name": "",
          "type": "uint256"
        }
      ],
      "payable": false,
      "type": "function",
      "stateMutability": "view"
    },
    {
      "constant": true,
      "inputs": [],
      "name": "weiRaised",
      "outputs": [
        {
          "name": "",
          "type": "uint256"
        }
      ],
      "payable": false,
      "type": "function",
      "stateMutability": "view"
    },
    {
      "constant": false,
      "inputs": [],
      "name": "finalize",
      "outputs": [
        {
          "name": "",
          "type": "address"
        }
      ],
      "payable": false,
      "type": "function",
      "stateMutability": "nonpayable"
    },
    {
      "constant": true,
      "inputs": [],
      "name": "purchasedTokensRaised",
      "outputs": [
        {
          "name": "",
          "type": "uint256"
        }
      ],
      "payable": false,
      "type": "function",
      "stateMutability": "view"
    },
    {
      "constant": true,
      "inputs": [],
      "name": "bountiesWallet",
      "outputs": [
        {
          "name": "",
          "type": "address"
        }
      ],
      "payable": false,
      "type": "function",
      "stateMutability": "view"
    },
    {
      "constant": true,
      "inputs": [],
      "name": "wallet",
      "outputs": [
        {
          "name": "",
          "type": "address"
        }
      ],
      "payable": false,
      "type": "function",
      "stateMutability": "view"
    },
    {
      "constant": true,
      "inputs": [],
      "name": "paused",
      "outputs": [
        {
          "name": "",
          "type": "bool"
        }
      ],
      "payable": false,
      "type": "function",
      "stateMutability": "view"
    },
    {
      "constant": true,
      "inputs": [],
      "name": "startTime",
      "outputs": [
        {
          "name": "",
          "type": "uint256"
        }
      ],
      "payable": false,
      "type": "function",
      "stateMutability": "view"
    },
    {
      "constant": true,
      "inputs": [],
      "name": "goalReached",
      "outputs": [
        {
          "name": "",
          "type": "bool"
        }
      ],
      "payable": false,
      "type": "function",
      "stateMutability": "view"
    },
    {
      "constant": false,
      "inputs": [],
      "name": "pause",
      "outputs": [
        {
          "name": "",
          "type": "address"
        }
      ],
      "payable": false,
      "type": "function",
      "stateMutability": "nonpayable"
    },
    {
      "constant": true,
      "inputs": [],
      "name": "isFinalized",
      "outputs": [
        {
          "name": "",
          "type": "bool"
        }
      ],
      "payable": false,
      "type": "function",
      "stateMutability": "view"
    },
    {
      "constant": true,
      "inputs": [],
      "name": "owner",
      "outputs": [
        {
          "name": "",
          "type": "address"
        }
      ],
      "payable": false,
      "type": "function",
      "stateMutability": "view"
    },
    {
      "constant": false,
      "inputs": [
        {
          "name": "beneficiary",
          "type": "address"
        }
      ],
      "name": "claimRefund",
      "outputs": [],
      "payable": false,
      "type": "function",
      "stateMutability": "nonpayable"
    },
    {
      "constant": false,
      "inputs": [
        {
          "name": "beneficiary",
          "type": "address"
        }
      ],
      "name": "buyTokens",
      "outputs": [
        {
          "name": "",
          "type": "bool"
        }
      ],
      "payable": true,
      "type": "function",
      "stateMutability": "payable"
    },
    {
      "constant": true,
      "inputs": [
        {
          "name": "newOwner",
          "type": "address"
        }
      ],
      "name": "hasEnded",
      "outputs": [
        {
          "name": "",
          "type": "bool"
        }
      ],
      "payable": false,
      "type": "function",
      "stateMutability": "view"
    },
    {
      "constant": false,
      "inputs": [
        {
          "name": "newOwner",
          "type": "address"
        }
      ],
      "name": "transferOwnership",
      "outputs": [
        {
          "name": "",
          "type": "address"
        }
      ],
      "payable": false,
      "type": "function",
      "stateMutability": "nonpayable"
    },
    {
      "constant": true,
      "inputs": [],
      "name": "vault",
      "outputs": [
        {
          "name": "",
          "type": "address"
        }
      ],
      "payable": false,
      "type": "function",
      "stateMutability": "view"
    },
    {
      "inputs": [
        {
          "name": "_startTime",
          "type": "uint256"
        },
        {
          "name": "_endTime",
          "type": "uint256"
        },
        {
          "name": "_rate",
          "type": "uint256"
        },
        {
          "name": "_wallet",
          "type": "address"
        },
        {
          "name": "_bountiesWallet",
          "type": "address"
        },
        {
          "name": "_foundersWallet",
          "type": "address"
        },
        {
          "name": "_goal",
          "type": "uint256"
        },
        {
          "name": "_cap",
          "type": "uint256"
        },
        {
          "name": "_token",
          "type": "address"
        },
        {
          "name": "_weiRaisedDuringPresale",
          "type": "uint256"
        }
      ],
      "payable": false,
      "type": "function",
      "stateMutability": "view",
      "constant": true,
      "name": "token",
      "outputs": [
        {
          "name": "",
          "type": "address"
        }
      ]
    },
    {
      "payable": false,
      "type": "constructor",
      "stateMutability": "nonpayable",
      "inputs": [
        {
          "name": "_startTime",
          "type": "uint256"
        },
        {
          "name": "_endTime",
          "type": "uint256"
        },
        {
          "name": "_rate",
          "type": "uint256"
        },
        {
          "name": "_wallet",
          "type": "address"
        },
        {
          "name": "_bountiesWallet",
          "type": "address"
        },
        {
          "name": "_foundersWallet",
          "type": "address"
        },
        {
          "name": "_goal",
          "type": "uint256"
        },
        {
          "name": "_cap",
          "type": "uint256"
        },
        {
          "name": "_token",
          "type": "address"
        },
        {
          "name": "_purchasedTokensRaisedDuringPresale",
          "type": "uint256"
        }
      ]
    },
    {
      "anonymous": false,
      "inputs": [],
      "name": "Finalized",
      "type": "fallback",
      "payable": true,
      "stateMutability": "payable"
    },
    {
      "anonymous": false,
      "inputs": [],
      "name": "Finalized",
      "type": "event"
    },
    {
      "anonymous": false,
      "inputs": [],
      "name": "Pause",
      "type": "event"
    },
    {
      "anonymous": false,
      "inputs": [
        {
          "indexed": true,
          "name": "previousOwner",
          "type": "address"
        },
        {
          "indexed": true,
          "name": "newOwner",
          "type": "address"
        }
      ],
      "name": "Unpause",
      "type": "event"
    },
    {
      "anonymous": false,
      "inputs": [
        {
          "indexed": true,
          "name": "previousOwner",
          "type": "address"
        },
        {
          "indexed": true,
          "name": "newOwner",
          "type": "address"
        },
        {
          "indexed": false,
          "name": "value",
          "type": "uint256"
        },
        {
          "indexed": false,
          "name": "amount",
          "type": "uint256"
        }
      ],
      "name": "OwnershipTransferred",
      "type": "event"
    },
    {
      "anonymous": false,
      "inputs": [
        {
          "indexed": true,
          "name": "purchaser",
          "type": "address"
        },
        {
          "indexed": true,
          "name": "beneficiary",
          "type": "address"
        },
        {
          "indexed": false,
          "name": "value",
          "type": "uint256"
        },
        {
          "indexed": false,
          "name": "amount",
          "type": "uint256"
        }
      ],
      "name": "TokenPurchase",
      "type": "event"
    }
  ],
  "bytecode": "0x60606040526006805460a060020a61ffff02191690556012600a55341561002557600080fd5b60405161014080611564833981016040528080519190602001805191906020018051919060200180519190602001805191906020018051919060200180519190602001805191906020018051919060200180519150839050848b8b8b8b4284101561008f57600080fd5b8383101561009c57600080fd5b600082116100a957600080fd5b600160a060020a03811615156100be57600080fd5b6100d3640100000000610d0c6101f982021704565b60008054600160a060020a0319908116600160a060020a03938416178255600196909655600294909455600492909255600380548516918316919091179055600680549093163390911617909155811161012c57600080fd5b600354600160a060020a03166101406101fe565b600160a060020a039091168152602001604051809103906000f080151561016657600080fd5b60088054600160a060020a031916600160a060020a03929092169190911790556007556000811161019657600080fd5b6009558284106101a557600080fd5b600d8054600160a060020a0319908116600160a060020a0398891617909155600c805482169688169690961790955560008054909516919095161783555050600555600f819055600e555061020e92505050565b600090565b60405161060a80610f5a83390190565b610d3d8061021d6000396000f3006060604052361561012d5763ffffffff60e060020a6000350416631bfaf15581146101385780631d902fe91461016757806329516ba71461018c5780632c4e722e1461019f5780633197cbb6146101b2578063355274ea146101c55780633f4ba83a146101d857806340193883146101eb5780634042b66f146101fe5780634bb278f3146102115780634d5e58a4146102245780635157651014610237578063521eb2731461024a5780635c975abb1461025d57806378e97925146102845780637d3d6522146102975780638456cb59146102aa5780638d4e4083146102bd5780638da5cb5b146102d0578063b5545a3c146102e3578063ec8ac4d8146102f6578063ecb70fb71461030a578063f2fde38b1461031d578063fbfa77cf1461033c578063fc0c546a1461034f575b61013633610362565b005b341561014357600080fd5b61014b6104f7565b604051600160a060020a03909116815260200160405180910390f35b341561017257600080fd5b61017a610506565b60405190815260200160405180910390f35b341561019757600080fd5b61017a6105a7565b34156101aa57600080fd5b61017a6105ad565b34156101bd57600080fd5b61017a6105b3565b34156101d057600080fd5b61017a6105b9565b34156101e357600080fd5b6101366105bf565b34156101f657600080fd5b61017a61063e565b341561020957600080fd5b61017a610644565b341561021c57600080fd5b61013661064a565b341561022f57600080fd5b61017a6106ea565b341561024257600080fd5b61014b6106f0565b341561025557600080fd5b61014b6106ff565b341561026857600080fd5b61027061070e565b604051901515815260200160405180910390f35b341561028f57600080fd5b61017a61071e565b34156102a257600080fd5b610270610724565b34156102b557600080fd5b61013661072f565b34156102c857600080fd5b6102706107b3565b34156102db57600080fd5b61014b6107c3565b34156102ee57600080fd5b6101366107d2565b610136600160a060020a0360043516610362565b341561031557600080fd5b61027061085d565b341561032857600080fd5b610136600160a060020a036004351661087f565b341561034757600080fd5b61014b61091a565b341561035a57600080fd5b61014b610929565b600654600090819060a060020a900460ff161561037e57600080fd5b600160a060020a038316151561039357600080fd5b61039b610938565b15156103a657600080fd5b6004543492506103bd90839063ffffffff61096b16565b90506103e860646103dc6103cf610506565b849063ffffffff61096b16565b9063ffffffff61099616565b6005549091506103fe908363ffffffff6109ad16565b600555600e54610414908263ffffffff6109ad16565b5060008054600160a060020a0316906340c10f1990859084906040516020015260405160e060020a63ffffffff8516028152600160a060020a0390921660048301526024820152604401602060405180830381600087803b151561047757600080fd5b6102c65a03f1151561048857600080fd5b505050604051805190505082600160a060020a031633600160a060020a03167f623b3804fa71d67900d064613da8f94b9617215ee90799290593e1745087ad18848460405191825260208201526040908101905180910390a36104ea816109bc565b6104f2610b9a565b505050565b600c54600160a060020a031681565b6000600454600a54621e84800281151561051c57fe5b04600e54101561052e5750607d6105a4565b600454600a54623d09000281151561054257fe5b04600e541015610554575060766105a4565b600454600a54625b8d800281151561056857fe5b04600e54101561057a5750606f6105a4565b600454600a54628954400281151561058e57fe5b04600e5410156105a0575060696105a4565b5060645b90565b600f5481565b60045481565b60025481565b60095481565b60065433600160a060020a039081169116146105da57600080fd5b60065460a060020a900460ff1615156105f257600080fd5b6006805474ff0000000000000000000000000000000000000000191690557f7805862f689e2f13df9f062ff482ad3ad112aca9e0847911ed832e158c525b3360405160405180910390a1565b60075481565b60055481565b60065433600160a060020a0390811691161461066557600080fd5b60065460a860020a900460ff161561067c57600080fd5b61068461085d565b151561068f57600080fd5b610697610c01565b7f6823b073d48d6e3a7d385eeb601452d680e74bb46afe3255a7d778f3a9b1768160405160405180910390a16006805475ff000000000000000000000000000000000000000000191660a860020a179055565b600e5481565b600d54600160a060020a031681565b600354600160a060020a031681565b60065460a060020a900460ff1681565b60015481565b600754600e54101590565b60065433600160a060020a0390811691161461074a57600080fd5b60065460a060020a900460ff161561076157600080fd5b6006805474ff0000000000000000000000000000000000000000191660a060020a1790557f6985a02210a168e66602d3235cb6db0e70f92b3ba4d376a33c0f3d9434bff62560405160405180910390a1565b60065460a860020a900460ff1681565b600654600160a060020a031681565b60065460a860020a900460ff1615156107ea57600080fd5b6107f2610724565b156107fc57600080fd5b600854600160a060020a031663fa89401a3360405160e060020a63ffffffff8416028152600160a060020a039091166004820152602401600060405180830381600087803b151561084c57600080fd5b6102c65a03f115156104f257600080fd5b600954600e54600091901015610871610cc0565b806108795750805b91505090565b60065433600160a060020a0390811691161461089a57600080fd5b600160a060020a03811615156108af57600080fd5b600654600160a060020a0380831691167f8be0079c531659141344cd1fd0a4f28419497f9722a3daafe3b4186f6b6457e060405160405180910390a36006805473ffffffffffffffffffffffffffffffffffffffff1916600160a060020a0392909216919091179055565b600854600160a060020a031681565b600054600160a060020a031681565b600080600954610953346005546109ad90919063ffffffff16565b1115905061095f610cd4565b80156108795750919050565b6000828202831580610987575082848281151561098457fe5b04145b151561098f57fe5b9392505050565b60008082848115156109a457fe5b04949350505050565b60008282018381101561098f57fe5b600080806109d6600d6103dc86600463ffffffff61096b16565b92506109ee600d6103dc86600263ffffffff61096b16565b9150610a06600d6103dc86600163ffffffff61096b16565b60008054600354929350600160a060020a03908116926340c10f199291169086906040516020015260405160e060020a63ffffffff8516028152600160a060020a0390921660048301526024820152604401602060405180830381600087803b1515610a7157600080fd5b6102c65a03f11515610a8257600080fd5b5050506040518051505060008054600d54600160a060020a03918216926340c10f19929091169085906040516020015260405160e060020a63ffffffff8516028152600160a060020a0390921660048301526024820152604401602060405180830381600087803b1515610af557600080fd5b6102c65a03f11515610b0657600080fd5b5050506040518051505060008054600c54600160a060020a03918216926340c10f19929091169084906040516020015260405160e060020a63ffffffff8516028152600160a060020a0390921660048301526024820152604401602060405180830381600087803b1515610b7957600080fd5b6102c65a03f11515610b8a57600080fd5b5050506040518051505050505050565b600854600160a060020a031663f340fa01343360405160e060020a63ffffffff8516028152600160a060020a0390911660048201526024016000604051808303818588803b1515610bea57600080fd5b6125ee5a03f11515610bfb57600080fd5b50505050565b610c09610724565b15610c6657600854600160a060020a03166343d726d66040518163ffffffff1660e060020a028152600401600060405180830381600087803b1515610c4d57600080fd5b6102c65a03f11515610c5e57600080fd5b505050610cba565b600854600160a060020a0316638c52dc416040518163ffffffff1660e060020a028152600401600060405180830381600087803b1515610ca557600080fd5b6102c65a03f11515610cb657600080fd5b5050505b610cbe5b565b600954600554600091901015610871610d04565b60008060006001544210158015610ced57506002544211155b915050341515818015610cfd5750805b9250505090565b600254421190565b6000905600a165627a7a72305820c8d5214cc26fd6dcd6c1a7bdb88bdf40305c965877b6fe82315a07ba87c3618200296060604052341561000f57600080fd5b60405160208061060a8339810160405280805160008054600160a060020a03191633600160a060020a039081169190911790915590925082161515905061005557600080fd5b60028054600160a060020a031916600160a060020a03929092169190911760a060020a60ff021916905561057c8061008e6000396000f300606060405236156100965763ffffffff7c010000000000000000000000000000000000000000000000000000000060003504166343d726d6811461009b578063521eb273146100b05780638c52dc41146100df5780638da5cb5b146100f2578063c19d93fb14610105578063cb13cddb1461013c578063f2fde38b1461016d578063f340fa011461018c578063fa89401a146101a0575b600080fd5b34156100a657600080fd5b6100ae6101bf565b005b34156100bb57600080fd5b6100c361029a565b604051600160a060020a03909116815260200160405180910390f35b34156100ea57600080fd5b6100ae6102a9565b34156100fd57600080fd5b6100c361033a565b341561011057600080fd5b610118610349565b6040518082600281111561012857fe5b60ff16815260200191505060405180910390f35b341561014757600080fd5b61015b600160a060020a0360043516610359565b60405190815260200160405180910390f35b341561017857600080fd5b6100ae600160a060020a036004351661036b565b6100ae600160a060020a0360043516610406565b34156101ab57600080fd5b6100ae600160a060020a036004351661048a565b60005433600160a060020a039081169116146101da57600080fd5b60006002805460a060020a900460ff16908111156101f457fe5b146101fe57600080fd5b6002805474ff00000000000000000000000000000000000000001916740200000000000000000000000000000000000000001790557f1cdde67b72a90f19919ac732a437ac2f7a10fc128d28c2a6e525d89ce5cd9d3a60405160405180910390a1600254600160a060020a039081169030163180156108fc0290604051600060405180830381858888f19350505050151561029857600080fd5b565b600254600160a060020a031681565b60005433600160a060020a039081169116146102c457600080fd5b60006002805460a060020a900460ff16908111156102de57fe5b146102e857600080fd5b6002805474ff0000000000000000000000000000000000000000191660a060020a1790557f599d8e5a83cffb867d051598c4d70e805d59802d8081c1c7d6dffc5b6aca2b8960405160405180910390a1565b600054600160a060020a031681565b60025460a060020a900460ff1681565b60016020526000908152604090205481565b60005433600160a060020a0390811691161461038657600080fd5b600160a060020a038116151561039b57600080fd5b600054600160a060020a0380831691167f8be0079c531659141344cd1fd0a4f28419497f9722a3daafe3b4186f6b6457e060405160405180910390a36000805473ffffffffffffffffffffffffffffffffffffffff1916600160a060020a0392909216919091179055565b60005433600160a060020a0390811691161461042157600080fd5b60006002805460a060020a900460ff169081111561043b57fe5b1461044557600080fd5b600160a060020a03811660009081526001602052604090205461046e903463ffffffff61053a16565b600160a060020a03909116600090815260016020526040902055565b600060016002805460a060020a900460ff16908111156104a657fe5b146104b057600080fd5b50600160a060020a038116600081815260016020526040808220805492905590919082156108fc0290839051600060405180830381858888f1935050505015156104f957600080fd5b81600160a060020a03167fd7dee2702d63ad89917b6a4da9981c90c4d24f8c2bdfd64c604ecae57d8d06518260405190815260200160405180910390a25050565b60008282018381101561054957fe5b93925050505600a165627a7a7230582096543a3febfe5112626b3166e7aad6973708a4078ab520954003a3fec87e3f6b0029",
  "source": "pragma solidity ^0.4.11;\n/* Prevent overfow/underflow of arithmetic: */\nimport 'zeppelin-solidity/contracts/math/SafeMath.sol';\n\n/* Restrict certain actions to only the contract's owner: */\nimport 'zeppelin-solidity/contracts/ownership/Ownable.sol';\nimport 'zeppelin-solidity/contracts/lifecycle/Pausable.sol';\n\n/* Restrict certain actions to only the contract's owner: */\nimport 'zeppelin-solidity/contracts/crowdsale/CappedCrowdsale.sol';\nimport 'zeppelin-solidity/contracts/crowdsale/RefundableCrowdsale.sol';\n\n/* Reference to the FintechCoin contract, whose tokens are sold. */\nimport './FintechCoin.sol';\n\ncontract FintechFansCrowdsale is Pausable, RefundableCrowdsale, CappedCrowdsale {\n    uint256 tokenDecimals = 18;\n\n    FintechCoin tokenContract;\n    address public foundersWallet;\n    address public bountiesWallet;\n\n    uint256 public purchasedTokensRaised;\n    uint256 public purchasedTokensRaisedDuringPresale;\n\n    function FintechFansCrowdsale (\n        uint256 _startTime,\n        uint256 _endTime,\n        uint256 _rate,\n        address _wallet,\n        address _bountiesWallet,\n        address _foundersWallet,\n        uint256 _goal,\n        uint256 _cap,\n        FintechCoin _token,\n        uint256 _purchasedTokensRaisedDuringPresale\n        )\n        Crowdsale(_startTime, _endTime, _rate, _wallet)\n        RefundableCrowdsale(_goal)\n        CappedCrowdsale(_cap)\n    {\n        require(_goal < _cap);\n\n        bountiesWallet = _bountiesWallet;\n        foundersWallet = _foundersWallet;\n        token = _token;\n        weiRaised = 0;\n\n        purchasedTokensRaisedDuringPresale = _purchasedTokensRaisedDuringPresale; // TODO Actual value, since only count tokens that were purchased directly.\n        purchasedTokensRaised = purchasedTokensRaisedDuringPresale;\n    }\n\n    /*\n      Overrides Crowdsale.createTokenContract,\n      because the FintechFansCrowdsale uses an already-deployed\n      token, so there is no need to internally deploy a contract.\n     */\n    function createTokenContract() internal returns (MintableToken) {\n        return MintableToken(0x0);\n  }\n\n    /*\n     * Overrides version of Crowdsale.buyTokens because:\n     * - The Wei->FFC rate depends on how many tokens have already been sold.\n     * - Also mint tokens sent to FintechFans and the Founders at the same time.\n    */\n    function buyTokens(address beneficiary) public payable whenNotPaused {\n        require(beneficiary != 0x0);\n        require(validPurchase());\n\n        uint256 weiAmount = msg.value;\n\n        // calculate token amount to be created\n        uint256 purchasedTokens = weiAmount.mul(rate);\n        purchasedTokens = purchasedTokens.mul(currentBonusRate()).div(100);\n\n        // update state\n        weiRaised = weiRaised.add(weiAmount);\n        purchasedTokensRaised.add(purchasedTokens);\n\n        // Mint tokens for beneficiary\n        token.mint(beneficiary, purchasedTokens);\n        TokenPurchase(msg.sender, beneficiary, weiAmount, purchasedTokens);\n\n        mintTokensForFacilitators(purchasedTokens);\n\n        forwardFunds();\n    }\n\n    // Overrides RefundableCrowdsale#goalReached\n    // since we count the goal in purchased tokens, instead of in Wei.\n    // @return true if crowdsale has reached more funds than the minimum goal.\n    function goalReached() public constant returns (bool) {\n        return purchasedTokensRaised >= goal;\n    }\n\n    // Overrides CappedCrowdsale#hasEnded to add cap logic in tokens\n    // @return true if crowdsale event has ended\n    function hasEnded() public constant returns (bool) {\n        bool capReached = purchasedTokensRaised >= cap;\n        return super.hasEnded() || capReached;\n    }\n\n    /*\n     * @dev In total, (20/13) * `purchasedTokens` tokens are created.\n     * @dev 13/13th of these are for the Beneficiary.\n     * @dev 7/13th of these are minted for the Facilitators as follows:\n     * @dev   1/13th -> Founders\n     * @dev   2/13th -> Bounties\n     * @dev   4/13th -> FintechFans\n     * Note that all result rational amounts are floored since the EVM only works with integer arithmetic.\n     */\n    function mintTokensForFacilitators(uint256 purchasedTokens) internal {\n        // Mint tokens for FintechFans and Founders\n        uint256 fintechfans_tokens = purchasedTokens.mul(4).div(13);\n        uint256 bounties_tokens = purchasedTokens.mul(2).div(13);\n        uint256 founders_tokens = purchasedTokens.mul(1).div(13);\n        token.mint(wallet, fintechfans_tokens);\n        token.mint(bountiesWallet, bounties_tokens);\n        token.mint(foundersWallet, founders_tokens);/* TODO Locked vault? */\n    }\n\n    /*\n     * @return a fixed-size number that is the total percentage of tokens that will be created. (100 * the bonus ratio)\n     * When < 2 million tokens purchased, this will be 125%, which is equivalent to a 20% discount\n     * When < 4 million tokens purchased, 118%, which is equivalent to a 15% discount.\n     * When < 6 million tokens purchased, 111%, which is equivalent to a 10% discount.\n     * When < 9 million tokens purchased, 105%, which is equivalent to a 5% discount.\n     * Otherwise, there is no bonus and the function returns 100%.\n     */\n    function currentBonusRate() public constant returns (uint) {\n        /* TODO check how `rate' is used. */\n        if(purchasedTokensRaised < (2000000 * tokenDecimals) / rate) return 125/*.25*/; // 20% discount\n        if(purchasedTokensRaised < (4000000 * tokenDecimals) / rate) return 118/*.1764705882352942*/; // 15% discount\n        if(purchasedTokensRaised < (6000000 * tokenDecimals) / rate) return 111/*.1111111111111112*/; // 10% discount\n        if(purchasedTokensRaised < (9000000 * tokenDecimals) / rate) return 105/*.0526315789473684*/; // 5% discount\n        return 100;\n    }\n\n\n\n}\n",
  "sourcePath": "/home/qqwy/Programming/Resilia/fintech_fans/fintechfans_marketplace/contracts/FintechFansCrowdsale.sol",
  "schemaVersion": "1.0.0",
  "updatedAt": "2017-10-16T09:27:07.663Z"
}