{
  "contractName": "MintableZenoToken",
  "abi": [
    {
      "constant": true,
      "inputs": [],
      "name": "mintingFinished",
      "outputs": [
        {
          "name": "",
          "type": "bool"
        }
      ],
      "payable": false,
      "type": "function",
      "stateMutability": "view"
    },
    {
      "constant": true,
      "inputs": [],
      "name": "name",
      "outputs": [
        {
          "name": "",
          "type": "string"
        }
      ],
      "payable": false,
      "type": "function",
      "stateMutability": "view"
    },
    {
      "constant": false,
      "inputs": [
        {
          "name": "spender",
          "type": "address"
        },
        {
          "name": "value",
          "type": "uint256"
        }
      ],
      "name": "approve",
      "outputs": [
        {
          "name": "success",
          "type": "bool"
        }
      ],
      "payable": false,
      "type": "function",
      "stateMutability": "nonpayable"
    },
    {
      "constant": true,
      "inputs": [
        {
          "name": "owner",
          "type": "address"
        }
      ],
      "name": "rawBalanceOf",
      "outputs": [
        {
          "name": "balance",
          "type": "uint256"
        }
      ],
      "payable": false,
      "type": "function",
      "stateMutability": "view"
    },
    {
      "constant": true,
      "inputs": [],
      "name": "totalSupply",
      "outputs": [
        {
          "name": "total_supply",
          "type": "uint256"
        }
      ],
      "payable": false,
      "type": "function",
      "stateMutability": "view"
    },
    {
      "constant": false,
      "inputs": [
        {
          "name": "from",
          "type": "address"
        },
        {
          "name": "to",
          "type": "address"
        },
        {
          "name": "value",
          "type": "uint256"
        }
      ],
      "name": "transferFrom",
      "outputs": [
        {
          "name": "success",
          "type": "bool"
        }
      ],
      "payable": false,
      "type": "function",
      "stateMutability": "nonpayable"
    },
    {
      "constant": true,
      "inputs": [],
      "name": "decimals",
      "outputs": [
        {
          "name": "",
          "type": "uint8"
        }
      ],
      "payable": false,
      "type": "function",
      "stateMutability": "view"
    },
    {
      "constant": false,
      "inputs": [
        {
          "name": "_to",
          "type": "address"
        },
        {
          "name": "_amount",
          "type": "uint256"
        }
      ],
      "name": "mint",
      "outputs": [
        {
          "name": "",
          "type": "bool"
        }
      ],
      "payable": false,
      "type": "function",
      "stateMutability": "nonpayable"
    },
    {
      "constant": true,
      "inputs": [],
      "name": "standard",
      "outputs": [
        {
          "name": "",
          "type": "string"
        }
      ],
      "payable": false,
      "type": "function",
      "stateMutability": "view"
    },
    {
      "constant": false,
      "inputs": [
        {
          "name": "to",
          "type": "address"
        },
        {
          "name": "raw_value",
          "type": "uint256"
        }
      ],
      "name": "rawTransfer",
      "outputs": [
        {
          "name": "success",
          "type": "bool"
        }
      ],
      "payable": false,
      "type": "function",
      "stateMutability": "nonpayable"
    },
    {
      "constant": true,
      "inputs": [
        {
          "name": "owner",
          "type": "address"
        }
      ],
      "name": "balanceOf",
      "outputs": [
        {
          "name": "balance",
          "type": "uint256"
        }
      ],
      "payable": false,
      "type": "function",
      "stateMutability": "view"
    },
    {
      "constant": false,
      "inputs": [],
      "name": "finishMinting",
      "outputs": [
        {
          "name": "",
          "type": "bool"
        }
      ],
      "payable": false,
      "type": "function",
      "stateMutability": "nonpayable"
    },
    {
      "constant": true,
      "inputs": [],
      "name": "owner",
      "outputs": [
        {
          "name": "",
          "type": "address"
        }
      ],
      "payable": false,
      "type": "function",
      "stateMutability": "view"
    },
    {
      "constant": true,
      "inputs": [],
      "name": "symbol",
      "outputs": [
        {
          "name": "",
          "type": "string"
        }
      ],
      "payable": false,
      "type": "function",
      "stateMutability": "view"
    },
    {
      "constant": false,
      "inputs": [
        {
          "name": "value",
          "type": "uint256"
        }
      ],
      "name": "redistribute",
      "outputs": [
        {
          "name": "success",
          "type": "bool"
        }
      ],
      "payable": false,
      "type": "function",
      "stateMutability": "nonpayable"
    },
    {
      "constant": false,
      "inputs": [
        {
          "name": "from",
          "type": "address"
        },
        {
          "name": "value",
          "type": "uint256"
        }
      ],
      "name": "redistributeFrom",
      "outputs": [
        {
          "name": "success",
          "type": "bool"
        }
      ],
      "payable": false,
      "type": "function",
      "stateMutability": "nonpayable"
    },
    {
      "constant": false,
      "inputs": [
        {
          "name": "to",
          "type": "address"
        },
        {
          "name": "value",
          "type": "uint256"
        }
      ],
      "name": "transfer",
      "outputs": [
        {
          "name": "success",
          "type": "bool"
        }
      ],
      "payable": false,
      "type": "function",
      "stateMutability": "nonpayable"
    },
    {
      "constant": true,
      "inputs": [
        {
          "name": "owner",
          "type": "address"
        },
        {
          "name": "spender",
          "type": "address"
        }
      ],
      "name": "rawAllowance",
      "outputs": [
        {
          "name": "remaining",
          "type": "uint256"
        }
      ],
      "payable": false,
      "type": "function",
      "stateMutability": "view"
    },
    {
      "constant": false,
      "inputs": [
        {
          "name": "_spender",
          "type": "address"
        },
        {
          "name": "value",
          "type": "uint256"
        },
        {
          "name": "_extraData",
          "type": "bytes"
        }
      ],
      "name": "approveAndCall",
      "outputs": [
        {
          "name": "success",
          "type": "bool"
        }
      ],
      "payable": false,
      "type": "function",
      "stateMutability": "nonpayable"
    },
    {
      "constant": true,
      "inputs": [
        {
          "name": "owner",
          "type": "address"
        },
        {
          "name": "spender",
          "type": "address"
        }
      ],
      "name": "allowance",
      "outputs": [
        {
          "name": "remaining",
          "type": "uint256"
        }
      ],
      "payable": false,
      "type": "function",
      "stateMutability": "view"
    },
    {
      "constant": false,
      "inputs": [
        {
          "name": "newOwner",
          "type": "address"
        }
      ],
      "name": "transferOwnership",
      "outputs": [],
      "payable": false,
      "type": "function",
      "stateMutability": "nonpayable"
    },
    {
      "inputs": [
        {
          "name": "name",
          "type": "string"
        },
        {
          "name": "symbol",
          "type": "string"
        },
        {
          "name": "decimals",
          "type": "uint8"
        },
        {
          "name": "startingCurrentWhole",
          "type": "uint256"
        }
      ],
      "payable": false,
      "type": "constructor",
      "stateMutability": "nonpayable"
    },
    {
      "anonymous": false,
      "inputs": [
        {
          "indexed": true,
          "name": "to",
          "type": "address"
        },
        {
          "indexed": false,
          "name": "amount",
          "type": "uint256"
        }
      ],
      "name": "Mint",
      "type": "event"
    },
    {
      "anonymous": false,
      "inputs": [],
      "name": "MintFinished",
      "type": "event"
    },
    {
      "anonymous": false,
      "inputs": [
        {
          "indexed": true,
          "name": "from",
          "type": "address"
        },
        {
          "indexed": true,
          "name": "to",
          "type": "address"
        },
        {
          "indexed": false,
          "name": "value",
          "type": "uint256"
        }
      ],
      "name": "Transfer",
      "type": "event"
    },
    {
      "anonymous": false,
      "inputs": [
        {
          "indexed": true,
          "name": "from",
          "type": "address"
        },
        {
          "indexed": true,
          "name": "to",
          "type": "address"
        },
        {
          "indexed": false,
          "name": "raw_value",
          "type": "uint256"
        }
      ],
      "name": "RawTransfer",
      "type": "event"
    },
    {
      "anonymous": false,
      "inputs": [
        {
          "indexed": true,
          "name": "from",
          "type": "address"
        },
        {
          "indexed": false,
          "name": "value",
          "type": "uint256"
        }
      ],
      "name": "Redistribute",
      "type": "event"
    },
    {
      "anonymous": false,
      "inputs": [
        {
          "indexed": true,
          "name": "from",
          "type": "address"
        },
        {
          "indexed": false,
          "name": "raw_value",
          "type": "uint256"
        }
      ],
      "name": "RawRedistribute",
      "type": "event"
    },
    {
      "anonymous": false,
      "inputs": [
        {
          "indexed": false,
          "name": "whole",
          "type": "uint256"
        }
      ],
      "name": "UpdatedWhole",
      "type": "event"
    },
    {
      "anonymous": false,
      "inputs": [
        {
          "indexed": true,
          "name": "_owner",
          "type": "address"
        },
        {
          "indexed": true,
          "name": "_spender",
          "type": "address"
        },
        {
          "indexed": false,
          "name": "_value",
          "type": "uint256"
        }
      ],
      "name": "Approval",
      "type": "event"
    },
    {
      "anonymous": false,
      "inputs": [
        {
          "indexed": true,
          "name": "previousOwner",
          "type": "address"
        },
        {
          "indexed": true,
          "name": "newOwner",
          "type": "address"
        }
      ],
      "name": "OwnershipTransferred",
      "type": "event"
    }
  ],
  "bytecode": "0x606060405260408051908101604052601081527f5a656e6f546f6b656e2076302e322e3000000000000000000000000000000000602082015260049080516200004d92916020019062000152565b507f80000000000000000000000000000000000000000000000000000000000000006006556009805460ff1916905534156200008857600080fd5b604051620011f4380380620011f4833981016040528080518201919060200180518201919060200180519190602001805160008054600160a060020a03191633600160a060020a031617905591508490508383600183838383838051620000f492916020019062000152565b5060028280516200010a92916020019062000152565b506003805460ff191660ff92909216919091179055505060055550506006805433600160a060020a03166000908152600760205260409020559190915550620001f792505050565b828054600181600116156101000203166002900490600052602060002090601f016020900481019282601f106200019557805160ff1916838001178555620001c5565b82800160010185558215620001c5579182015b82811115620001c5578251825591602001919060010190620001a8565b50620001d3929150620001d7565b5090565b620001f491905b80821115620001d35760008155600101620001de565b90565b610fed80620002076000396000f3006060604052361561011a5763ffffffff7c010000000000000000000000000000000000000000000000000000000060003504166305d2035b811461011f57806306fdde0314610146578063095ea7b3146101d057806312064c34146101f257806318160ddd1461022357806323b872dd14610236578063313ce5671461025e57806340c10f19146102875780635a3b7e42146102a95780636a6fe2b5146102bc57806370a08231146102de5780637d64bcb4146102fd5780638da5cb5b1461031057806395d89b411461033f578063a0ce552d14610352578063a825879014610368578063a9059cbb1461038a578063b76e76b1146103ac578063cae9ca51146103d1578063dd62ed3e14610436578063f2fde38b1461045b575b600080fd5b341561012a57600080fd5b61013261047c565b604051901515815260200160405180910390f35b341561015157600080fd5b610159610485565b60405160208082528190810183818151815260200191508051906020019080838360005b8381101561019557808201518382015260200161017d565b50505050905090810190601f1680156101c25780820380516001836020036101000a031916815260200191505b509250505060405180910390f35b34156101db57600080fd5b610132600160a060020a0360043516602435610523565b34156101fd57600080fd5b610211600160a060020a0360043516610565565b60405190815260200160405180910390f35b341561022e57600080fd5b610211610580565b341561024157600080fd5b610132600160a060020a0360043581169060243516604435610586565b341561026957600080fd5b610271610734565b60405160ff909116815260200160405180910390f35b341561029257600080fd5b610132600160a060020a036004351660243561073d565b34156102b457600080fd5b6101596107dc565b34156102c757600080fd5b610132600160a060020a0360043516602435610847565b34156102e957600080fd5b610211600160a060020a0360043516610946565b341561030857600080fd5b610132610959565b341561031b57600080fd5b6103236109b4565b604051600160a060020a03909116815260200160405180910390f35b341561034a57600080fd5b6101596109c3565b341561035d57600080fd5b610132600435610a2e565b341561037357600080fd5b610132600160a060020a0360043516602435610b6e565b341561039557600080fd5b610132600160a060020a0360043516602435610cb8565b34156103b757600080fd5b610211600160a060020a0360043581169060243516610d23565b34156103dc57600080fd5b61013260048035600160a060020a03169060248035919060649060443590810190830135806020601f82018190048102016040519081016040528181529291906020840183838082843750949650610d4e95505050505050565b341561044157600080fd5b610211600160a060020a0360043581169060243516610e91565b341561046657600080fd5b61047a600160a060020a0360043516610ea7565b005b60095460ff1681565b60018054600181600116156101000203166002900480601f01602080910402602001604051908101604052809291908181526020018280546001816001161561010002031660029004801561051b5780601f106104f05761010080835404028352916020019161051b565b820191906000526020600020905b8154815290600101906020018083116104fe57829003601f168201915b505050505081565b60008061052f83610f42565b600160a060020a0333811660009081526008602090815260408083209389168352929052208190556001925090505b5092915050565b600160a060020a031660009081526007602052604090205490565b60055490565b60008061059283610f42565b9050600160a060020a03841615156105ad576000915061072c565b600160a060020a038516600090815260076020526040902054819010156105d7576000915061072c565b600160a060020a0384166000908152600760205260409020548181011015610602576000915061072c565b600160a060020a0380861660009081526008602090815260408083203390941683529290522054811115610639576000915061072c565b600160a060020a03808616600081815260076020908152604080832080548790039055888516808452818420805488019055848452600883528184203390961684529490915290819020805485900390557f6e99c4e2634fe5c5eb594fca0ec009170229e10e94ff526d64311acb43d5aba99084905190815260200160405180910390a383600160a060020a031685600160a060020a03167fddf252ad1be2c89b69c2b068fc378daa952ba7f163c4a11628f55a4df523b3ef8560405190815260200160405180910390a3600080516020610fa283398151915260065460405190815260200160405180910390a1600191505b509392505050565b60035460ff1681565b60008054819033600160a060020a0390811691161461075b57600080fd5b60095460ff161561076b57600080fd5b61077483610f42565b905061078260065482610f5d565b6006556005546107929084610f5d565b600555600160a060020a0384166000908152600760205260409020546107b89082610f5d565b600160a060020a038516600090815260076020526040902055600191505092915050565b60048054600181600116156101000203166002900480601f01602080910402602001604051908101604052809291908181526020018280546001816001161561010002031660029004801561051b5780601f106104f05761010080835404028352916020019161051b565b6000600160a060020a038316151561086157506000610940565b600160a060020a0333166000908152600760205260409020548290101561088a57506000610940565b600160a060020a03831660009081526007602052604090205482810110156108b457506000610940565b600160a060020a033381166000818152600760205260408082208054879003905592861680825290839020805486019055917f6e99c4e2634fe5c5eb594fca0ec009170229e10e94ff526d64311acb43d5aba99085905190815260200160405180910390a3600080516020610fa283398151915260065460405190815260200160405180910390a15060015b92915050565b600061094061095483610565565b610f6c565b6000805433600160a060020a0390811691161461097557600080fd5b6009805460ff191660011790557fae5184fba832cb2b1f702aca6117b8d265eaf03ad33eb133f19dde0f5920fa0860405160405180910390a150600190565b600054600160a060020a031681565b60028054600181600116156101000203166002900480601f01602080910402602001604051908101604052809291908181526020018280546001816001161561010002031660029004801561051b5780601f106104f05761010080835404028352916020019161051b565b600080610a3a83610f42565b600160a060020a03331660009081526007602052604090205490915081901015610a675760009150610b68565b600654819011610a7a5760009150610b68565b600160a060020a033316600090815260076020526040902054610a9d9082610f8f565b600160a060020a033316600090815260076020526040902055600654610ac39082610f8f565b600655600160a060020a0333167fcaee39b10f578f39108b4b9d85bd975f6df84bf23fe5ac55be789d0dbdeba1e78260405190815260200160405180910390a233600160a060020a03167f3546c12ed0f324e9c27715b3fd5156e55a7f761ddb3be2a8fccff18cdcae79eb8460405190815260200160405180910390a2600080516020610fa283398151915260065460405190815260200160405180910390a1600191505b50919050565b600080610b7a83610f42565b600160a060020a03851660009081526007602052604090205490915081901015610ba7576000915061055e565b600160a060020a0380851660009081526008602090815260408083203390941683529290522054811115610bde576000915061055e565b600654819011610bf1576000915061055e565b600160a060020a03841660008181526007602052604090819020805484900390556006805484900390557fcaee39b10f578f39108b4b9d85bd975f6df84bf23fe5ac55be789d0dbdeba1e79083905190815260200160405180910390a283600160a060020a03167f3546c12ed0f324e9c27715b3fd5156e55a7f761ddb3be2a8fccff18cdcae79eb8460405190815260200160405180910390a2600080516020610fa283398151915260065460405190815260200160405180910390a15060019392505050565b6000806000610cc684610f42565b9150610cd28583610847565b905084600160a060020a031633600160a060020a03167fddf252ad1be2c89b69c2b068fc378daa952ba7f163c4a11628f55a4df523b3ef8660405190815260200160405180910390a3949350505050565b600160a060020a03918216600090815260086020908152604080832093909416825291909152205490565b6000806000610d5c85610f42565b9150859050610d6b8683610523565b15610e885780600160a060020a0316638f4ffcb1338730886040518563ffffffff167c01000000000000000000000000000000000000000000000000000000000281526004018085600160a060020a0316600160a060020a0316815260200184815260200183600160a060020a0316600160a060020a0316815260200180602001828103825283818151815260200191508051906020019080838360005b83811015610e21578082015183820152602001610e09565b50505050905090810190601f168015610e4e5780820380516001836020036101000a031916815260200191505b5095505050505050600060405180830381600087803b1515610e6f57600080fd5b6102c65a03f11515610e8057600080fd5b505050600192505b50509392505050565b6000610ea06109548484610d23565b9392505050565b60005433600160a060020a03908116911614610ec257600080fd5b600160a060020a0381161515610ed757600080fd5b600054600160a060020a0380831691167f8be0079c531659141344cd1fd0a4f28419497f9722a3daafe3b4186f6b6457e060405160405180910390a36000805473ffffffffffffffffffffffffffffffffffffffff1916600160a060020a0392909216919091179055565b6000600554600654811515610f5357fe5b0482029050919050565b600082820183811015610ea057fe5b6000600554600654811515610f7d57fe5b0482811515610f8857fe5b0492915050565b600082821115610f9b57fe5b50900390560027e72187d0826fdd7d9e50816ee8b2c79378aec5244513bf0bbe394bf2abb8bca165627a7a7230582094818fdf019a223dcc5cc25cf4c4106cbe48e553d88f59354e8d125fa178f9270029",
  "source": "pragma solidity ^0.4.11;\n\nimport 'zeppelin-solidity/contracts/math/SafeMath.sol';\nimport \"zeppelin-solidity/contracts/ownership/Ownable.sol\";\n\nimport \"./ZenoToken.sol\";\n\n/**\n * @title Mintable variant of the ZenoToken\n * @dev Alters the ZenoToken contract to allow its owner to mint it, until minting is set as 'finished'.\n * Based on code by OpenZeppelin: https://github.com/OpenZeppelin/zeppelin-solidity/blob/master/contracts/token/MintableToken.sol\n */\ncontract MintableZenoToken is Ownable, ZenoToken {\n    event Mint(address indexed to, uint256 amount);\n    event MintFinished();\n\n    bool public mintingFinished = false;\n\n    function MintableZenoToken(\n        string name,\n        string symbol,\n        uint8 decimals,\n        /* `startingCurrentWhole` is needed because:\n           - During minting this value scales up.\n           - During redistribution this value scales down.\n\n           So a reasonable value should be carefully picked for this,\n           depending on how many tokens are supposed to ever exist.\n         */\n        uint256 startingCurrentWhole\n    )\n        // A starting supply of `1` is needed, because `balance2raw` will not work with `0`.\n        ZenoToken(name, symbol, decimals, 1)\n    {\n        currentWhole = startingCurrentWhole;\n    }\n\n    modifier canMint() {\n        require(!mintingFinished);\n        _;\n    }\n\n    /**\n     * @dev Function to mint tokens\n     * @param _to The address that will receive the minted tokens.\n     * @param _amount The amount of tokens to mint.\n     * @return A boolean that indicates if the operation was successful.\n     */\n    function mint(address _to, uint256 _amount) onlyOwner canMint public returns (bool) {\n        uint256 raw_amount = balance2raw(_amount);\n        currentWhole = SafeMath.add(currentWhole, raw_amount);\n        theTotalSupply = SafeMath.add(theTotalSupply, _amount);\n        raw_balances[_to] = SafeMath.add(raw_balances[_to], raw_amount);\n\n        return true;\n    }\n\n    /**\n     * @dev Function to stop minting new tokens.\n     * @return True if the operation was successful.\n     */\n    function finishMinting() onlyOwner public returns (bool) {\n        mintingFinished = true;\n        MintFinished();\n        return true;\n  }\n}\n",
  "sourcePath": "/home/qqwy/Programming/Resilia/fintech_fans/fintechfans_marketplace/contracts/MintableZenoToken.sol",
  "schemaVersion": "1.0.0",
  "updatedAt": "2017-10-15T14:49:35.928Z"
}