{
  "contractName": "ApprovedBurnableToken",
  "abi": [
    {
      "constant": false,
      "inputs": [
        {
          "name": "_spender",
          "type": "address"
        },
        {
          "name": "_value",
          "type": "uint256"
        }
      ],
      "name": "approve",
      "outputs": [
        {
          "name": "",
          "type": "bool"
        }
      ],
      "payable": false,
      "type": "function",
      "stateMutability": "nonpayable"
    },
    {
      "constant": true,
      "inputs": [],
      "name": "totalSupply",
      "outputs": [
        {
          "name": "",
          "type": "uint256"
        }
      ],
      "payable": false,
      "type": "function",
      "stateMutability": "view"
    },
    {
      "constant": false,
      "inputs": [
        {
          "name": "_from",
          "type": "address"
        },
        {
          "name": "_to",
          "type": "address"
        },
        {
          "name": "_value",
          "type": "uint256"
        }
      ],
      "name": "transferFrom",
      "outputs": [
        {
          "name": "",
          "type": "bool"
        }
      ],
      "payable": false,
      "type": "function",
      "stateMutability": "nonpayable"
    },
    {
      "constant": false,
      "inputs": [
        {
          "name": "_value",
          "type": "uint256"
        }
      ],
      "name": "burn",
      "outputs": [],
      "payable": false,
      "type": "function",
      "stateMutability": "nonpayable"
    },
    {
      "constant": false,
      "inputs": [
        {
          "name": "_spender",
          "type": "address"
        },
        {
          "name": "_subtractedValue",
          "type": "uint256"
        }
      ],
      "name": "decreaseApproval",
      "outputs": [
        {
          "name": "success",
          "type": "bool"
        }
      ],
      "payable": false,
      "type": "function",
      "stateMutability": "nonpayable"
    },
    {
      "constant": true,
      "inputs": [
        {
          "name": "_owner",
          "type": "address"
        }
      ],
      "name": "balanceOf",
      "outputs": [
        {
          "name": "balance",
          "type": "uint256"
        }
      ],
      "payable": false,
      "type": "function",
      "stateMutability": "view"
    },
    {
      "constant": false,
      "inputs": [
        {
          "name": "_owner",
          "type": "address"
        },
        {
          "name": "_value",
          "type": "uint256"
        }
      ],
      "name": "burnFrom",
      "outputs": [],
      "payable": false,
      "type": "function",
      "stateMutability": "nonpayable"
    },
    {
      "constant": false,
      "inputs": [
        {
          "name": "_to",
          "type": "address"
        },
        {
          "name": "_value",
          "type": "uint256"
        }
      ],
      "name": "transfer",
      "outputs": [
        {
          "name": "",
          "type": "bool"
        }
      ],
      "payable": false,
      "type": "function",
      "stateMutability": "nonpayable"
    },
    {
      "constant": false,
      "inputs": [
        {
          "name": "_spender",
          "type": "address"
        },
        {
          "name": "_addedValue",
          "type": "uint256"
        }
      ],
      "name": "increaseApproval",
      "outputs": [
        {
          "name": "success",
          "type": "bool"
        }
      ],
      "payable": false,
      "type": "function",
      "stateMutability": "nonpayable"
    },
    {
      "constant": true,
      "inputs": [
        {
          "name": "_owner",
          "type": "address"
        },
        {
          "name": "_spender",
          "type": "address"
        }
      ],
      "name": "allowance",
      "outputs": [
        {
          "name": "remaining",
          "type": "uint256"
        }
      ],
      "payable": false,
      "type": "function",
      "stateMutability": "view"
    },
    {
      "anonymous": false,
      "inputs": [
        {
          "indexed": true,
          "name": "owner",
          "type": "address"
        },
        {
          "indexed": true,
          "name": "burner",
          "type": "address"
        },
        {
          "indexed": false,
          "name": "value",
          "type": "uint256"
        }
      ],
      "name": "BurnFrom",
      "type": "event"
    },
    {
      "anonymous": false,
      "inputs": [
        {
          "indexed": true,
          "name": "owner",
          "type": "address"
        },
        {
          "indexed": true,
          "name": "burner",
          "type": "address"
        },
        {
          "indexed": false,
          "name": "value",
          "type": "uint256"
        }
      ],
      "name": "BurnApproval",
      "type": "event"
    },
    {
      "anonymous": false,
      "inputs": [
        {
          "indexed": true,
          "name": "burner",
          "type": "address"
        },
        {
          "indexed": false,
          "name": "value",
          "type": "uint256"
        }
      ],
      "name": "Burn",
      "type": "event"
    },
    {
      "anonymous": false,
      "inputs": [
        {
          "indexed": true,
          "name": "owner",
          "type": "address"
        },
        {
          "indexed": true,
          "name": "spender",
          "type": "address"
        },
        {
          "indexed": false,
          "name": "value",
          "type": "uint256"
        }
      ],
      "name": "Approval",
      "type": "event"
    },
    {
      "anonymous": false,
      "inputs": [
        {
          "indexed": true,
          "name": "from",
          "type": "address"
        },
        {
          "indexed": true,
          "name": "to",
          "type": "address"
        },
        {
          "indexed": false,
          "name": "value",
          "type": "uint256"
        }
      ],
      "name": "Transfer",
      "type": "event"
    }
  ],
  "bytecode": "0x6060604052341561000f57600080fd5b6108f18061001e6000396000f300606060405236156100a15763ffffffff7c0100000000000000000000000000000000000000000000000000000000600035041663095ea7b381146100a657806318160ddd146100dc57806323b872dd1461010157806342966c6814610129578063661884631461014157806370a082311461016357806379cc679014610182578063a9059cbb146101a4578063d73dd623146101c6578063dd62ed3e146101e8575b600080fd5b34156100b157600080fd5b6100c8600160a060020a036004351660243561020d565b604051901515815260200160405180910390f35b34156100e757600080fd5b6100ef610279565b60405190815260200160405180910390f35b341561010c57600080fd5b6100c8600160a060020a036004358116906024351660443561027f565b341561013457600080fd5b61013f6004356103a9565b005b341561014c57600080fd5b6100c8600160a060020a036004351660243561044d565b341561016e57600080fd5b6100ef600160a060020a0360043516610547565b341561018d57600080fd5b61013f600160a060020a0360043516602435610562565b34156101af57600080fd5b6100c8600160a060020a03600435166024356106f8565b34156101d157600080fd5b6100c8600160a060020a03600435166024356107ce565b34156101f357600080fd5b6100ef600160a060020a0360043581169060243516610872565b600160a060020a03338116600081815260026020908152604080832094871680845294909152808220859055909291907f8c5be1e5ebec7d5bd14f71427d1e84f3dd0314c0f7b2291e5b200ac8c7c3b9259085905190815260200160405180910390a350600192915050565b60005481565b600080600160a060020a038416151561029757600080fd5b50600160a060020a038085166000818152600260209081526040808320339095168352938152838220549282526001905291909120546102dd908463ffffffff61089d16565b600160a060020a038087166000908152600160205260408082209390935590861681522054610312908463ffffffff6108af16565b600160a060020a03851660009081526001602052604090205561033b818463ffffffff61089d16565b600160a060020a03808716600081815260026020908152604080832033861684529091529081902093909355908616917fddf252ad1be2c89b69c2b068fc378daa952ba7f163c4a11628f55a4df523b3ef9086905190815260200160405180910390a3506001949350505050565b60008082116103b757600080fd5b5033600160a060020a0381166000908152600160205260409020546103dc908361089d565b600160a060020a03821660009081526001602052604081209190915554610409908363ffffffff61089d16565b600055600160a060020a0381167fcc16f5dbb4873280815c1ee09dbd06736cffcc184412cf7a71a0fdb75d397ca58360405190815260200160405180910390a25050565b600160a060020a033381166000908152600260209081526040808320938616835292905290812054808311156104aa57600160a060020a0333811660009081526002602090815260408083209388168352929052908120556104e1565b6104ba818463ffffffff61089d16565b600160a060020a033381166000908152600260209081526040808320938916835292905220555b600160a060020a0333811660008181526002602090815260408083209489168084529490915290819020547f8c5be1e5ebec7d5bd14f71427d1e84f3dd0314c0f7b2291e5b200ac8c7c3b925915190815260200160405180910390a35060019392505050565b600160a060020a031660009081526001602052604090205490565b600080821161057057600080fd5b600160a060020a03831660009081526001602052604090205482111561059557600080fd5b600160a060020a03808416600090815260026020908152604080832033909416835292905220548211156105c857600080fd5b50600160a060020a03821660009081526001602052604090205433906105f4908363ffffffff61089d16565b600160a060020a03808516600090815260016020908152604080832094909455600281528382209285168252919091522054610636908363ffffffff61089d16565b600160a060020a03808516600090815260026020908152604080832093861683529290529081209190915554610672908363ffffffff61089d16565b600055600160a060020a038082169084167f3c7611a5be35512cb20a6f2f039b47efb0d70f9c538e3886fa3f3e9c32af924f8460405190815260200160405180910390a382600160a060020a03167fcc16f5dbb4873280815c1ee09dbd06736cffcc184412cf7a71a0fdb75d397ca58360405190815260200160405180910390a2505050565b6000600160a060020a038316151561070f57600080fd5b600160a060020a033316600090815260016020526040902054610738908363ffffffff61089d16565b600160a060020a03338116600090815260016020526040808220939093559085168152205461076d908363ffffffff6108af16565b600160a060020a0380851660008181526001602052604090819020939093559133909116907fddf252ad1be2c89b69c2b068fc378daa952ba7f163c4a11628f55a4df523b3ef9085905190815260200160405180910390a350600192915050565b600160a060020a033381166000908152600260209081526040808320938616835292905290812054610806908363ffffffff6108af16565b600160a060020a0333811660008181526002602090815260408083209489168084529490915290819020849055919290917f8c5be1e5ebec7d5bd14f71427d1e84f3dd0314c0f7b2291e5b200ac8c7c3b92591905190815260200160405180910390a350600192915050565b600160a060020a03918216600090815260026020908152604080832093909416825291909152205490565b6000828211156108a957fe5b50900390565b6000828201838110156108be57fe5b93925050505600a165627a7a72305820ab7f31c4e80a25b3996a3f06977469b9f4632d1cb0b8b33970faa454975639710029",
  "source": "pragma solidity ^0.4.11;\n\nimport \"zeppelin-solidity/contracts/token/BurnableToken.sol\";\n/**\n * @title Expanded BurnableToken with an Approval system.\n *\n * @dev This token expands BurnableToken such that other accounts (such as Smart Contracts)\n * @dev can burn (at most a certain amount of) tokens owned by you.\n */\ncontract ApprovedBurnableToken is BurnableToken {\n\n    // List whom allows whom to irrevocably spend so much tokens from their balance.\n    /* mapping (address => mapping (address => uint256)) internal allowed; */\n\n    event BurnFrom(address indexed owner, // The address whose tokens were burned.\n                  address indexed burner, // The address that executed the `burnFrom` call\n                  uint256 value           // The amount of tokens that were burned.\n        );\n\n    event BurnApproval(address indexed owner,  // The address that approved someone\n                       address indexed burner, // The address that was approved\n                       uint256 value           // The maximum amount that `burner` can burn of `owner`s funds.\n        );\n\n    /**\n     * @dev Burns a specific amount of tokens of another account that `msg.sender`\n     * was approved to burn tokens for using `approveBurn` earlier.\n     * @param _owner The address to burn tokens from.\n     * @param _value The amount of token to be burned.\n     */\n    function burnFrom(address _owner, uint256 _value) public {\n        require(_value > 0);\n        require(_value <= balances[_owner]);\n        require(_value <= allowed[_owner][msg.sender]);\n        // no need to require value <= totalSupply, since that would imply the\n        // sender's balance is greater than the totalSupply, which *should* be an assertion failure\n\n        address burner = msg.sender;\n        balances[_owner] = balances[_owner].sub(_value);\n        allowed[_owner][burner] = allowed[_owner][burner].sub(_value);\n        totalSupply = totalSupply.sub(_value);\n\n        BurnFrom(_owner, burner, _value);\n        Burn(_owner, _value);\n    }\n\n    /* /\\** */\n    /*  * @dev Approve the passed address to spend the specified amount of tokens on behalf of msg.sender. */\n    /*  * */\n    /*  * Beware that changing an allowance with this method brings the risk that someone may use both the old */\n    /*  * and the new allowance by unfortunate transaction ordering. One possible solution to mitigate this */\n    /*  * race condition is to first reduce the spender's allowance to 0 and set the desired value afterwards: */\n    /*  * https://github.com/ethereum/EIPs/issues/20#issuecomment-263524729 */\n    /*  * */\n    /*  * Therefore, using `increaseApproval` and `decreaseApproval` instead is advised. */\n    /*  * */\n    /*  * @param _burner The address which will spend the funds. */\n    /*  * @param _value The amount of tokens to be spent. */\n    /*  *\\/ */\n    /* function approveBurn(address _burner, uint256 _value) public returns (bool) { */\n    /*     allowed[msg.sender][_burner] = _value; */\n    /*     BurnApproval(msg.sender, _burner, _value); */\n    /*     return true; */\n    /* } */\n\n    /* /\\** */\n    /*  * approve might be called when allowed[_burner] == 0. To increment */\n    /*  * allowed value is better to use this function to avoid two calls (and wait until */\n    /*  * the first transaction is mined) */\n    /*  * */\n    /*  * Adapted from MonolithDAO Token.sol */\n    /*  *\\/ */\n    /* function increaseBurnApproval (address _burner, uint _addedValue) public returns (bool success) { */\n    /*     allowed[msg.sender][_burner] = allowed[msg.sender][_burner].add(_addedValue); */\n    /*     Approval(msg.sender, _burner, allowed[msg.sender][_burner]); */\n    /*     return true; */\n    /* } */\n\n    /* function decreaseBurnApproval (address _burner, uint _subtractedValue) public returns (bool success) { */\n    /*     uint oldValue = allowed[msg.sender][_burner]; */\n    /*     if (_subtractedValue > oldValue) { */\n    /*         allowed[msg.sender][_burner] = 0; */\n    /*     } else { */\n    /*         allowed[msg.sender][_burner] = oldValue.sub(_subtractedValue); */\n    /*     } */\n    /*     BurnApproval(msg.sender, _burner, allowed[msg.sender][_burner]); */\n    /*     return true; */\n    /* } */\n}\n",
  "sourcePath": "/home/qqwy/Programming/Resilia/fintech_fans/fintechfans_marketplace/contracts/ApprovedBurnableToken.sol",
  "schemaVersion": "1.0.0",
  "updatedAt": "2017-10-16T08:06:29.682Z"
}