{
  "contractName": "FintechFansCrowdsale",
  "abi": [
    {
      "constant": true,
      "inputs": [],
      "name": "foundersWallet",
      "outputs": [
        {
          "name": "",
          "type": "address"
        }
      ],
      "payable": false,
      "type": "function",
      "stateMutability": "view"
    },
    {
      "constant": true,
      "inputs": [],
      "name": "currentBonusRate",
      "outputs": [
        {
          "name": "",
          "type": "uint256"
        }
      ],
      "payable": false,
      "type": "function",
      "stateMutability": "view"
    },
    {
      "constant": true,
      "inputs": [],
      "name": "purchasedTokensRaisedDuringPresale",
      "outputs": [
        {
          "name": "",
          "type": "uint256"
        }
      ],
      "payable": false,
      "type": "function",
      "stateMutability": "view"
    },
    {
      "constant": true,
      "inputs": [],
      "name": "rate",
      "outputs": [
        {
          "name": "",
          "type": "uint256"
        }
      ],
      "payable": false,
      "type": "function",
      "stateMutability": "view"
    },
    {
      "constant": true,
      "inputs": [],
      "name": "endTime",
      "outputs": [
        {
          "name": "",
          "type": "uint256"
        }
      ],
      "payable": false,
      "type": "function",
      "stateMutability": "view"
    },
    {
      "constant": true,
      "inputs": [],
      "name": "cap",
      "outputs": [
        {
          "name": "",
          "type": "uint256"
        }
      ],
      "payable": false,
      "type": "function",
      "stateMutability": "view"
    },
    {
      "constant": false,
      "inputs": [],
      "name": "unpause",
      "outputs": [
        {
          "name": "",
          "type": "uint256"
        }
      ],
      "payable": false,
      "type": "function",
      "stateMutability": "nonpayable"
    },
    {
      "constant": true,
      "inputs": [],
      "name": "goal",
      "outputs": [
        {
          "name": "",
          "type": "uint256"
        }
      ],
      "payable": false,
      "type": "function",
      "stateMutability": "view"
    },
    {
      "constant": true,
      "inputs": [],
      "name": "weiRaised",
      "outputs": [
        {
          "name": "",
          "type": "uint256"
        }
      ],
      "payable": false,
      "type": "function",
      "stateMutability": "view"
    },
    {
      "constant": false,
      "inputs": [],
      "name": "finalize",
      "outputs": [
        {
          "name": "",
          "type": "address"
        }
      ],
      "payable": false,
      "type": "function",
      "stateMutability": "nonpayable"
    },
    {
      "constant": true,
      "inputs": [],
      "name": "purchasedTokensRaised",
      "outputs": [
        {
          "name": "",
          "type": "uint256"
        }
      ],
      "payable": false,
      "type": "function",
      "stateMutability": "view"
    },
    {
      "constant": true,
      "inputs": [],
      "name": "bountiesWallet",
      "outputs": [
        {
          "name": "",
          "type": "address"
        }
      ],
      "payable": false,
      "type": "function",
      "stateMutability": "view"
    },
    {
      "constant": true,
      "inputs": [],
      "name": "wallet",
      "outputs": [
        {
          "name": "",
          "type": "address"
        }
      ],
      "payable": false,
      "type": "function",
      "stateMutability": "view"
    },
    {
      "constant": true,
      "inputs": [],
      "name": "paused",
      "outputs": [
        {
          "name": "",
          "type": "bool"
        }
      ],
      "payable": false,
      "type": "function",
      "stateMutability": "view"
    },
    {
      "constant": true,
      "inputs": [],
      "name": "startTime",
      "outputs": [
        {
          "name": "",
          "type": "uint256"
        }
      ],
      "payable": false,
      "type": "function",
      "stateMutability": "view"
    },
    {
      "constant": true,
      "inputs": [],
      "name": "goalReached",
      "outputs": [
        {
          "name": "",
          "type": "bool"
        }
      ],
      "payable": false,
      "type": "function",
      "stateMutability": "view"
    },
    {
      "constant": false,
      "inputs": [],
      "name": "pause",
      "outputs": [
        {
          "name": "",
          "type": "address"
        }
      ],
      "payable": false,
      "type": "function",
      "stateMutability": "nonpayable"
    },
    {
      "constant": true,
      "inputs": [],
      "name": "isFinalized",
      "outputs": [
        {
          "name": "",
          "type": "bool"
        }
      ],
      "payable": false,
      "type": "function",
      "stateMutability": "view"
    },
    {
      "constant": true,
      "inputs": [],
      "name": "owner",
      "outputs": [
        {
          "name": "",
          "type": "address"
        }
      ],
      "payable": false,
      "type": "function",
      "stateMutability": "view"
    },
    {
      "constant": false,
      "inputs": [
        {
          "name": "beneficiary",
          "type": "address"
        }
      ],
      "name": "claimRefund",
      "outputs": [],
      "payable": false,
      "type": "function",
      "stateMutability": "nonpayable"
    },
    {
      "constant": true,
      "inputs": [
        {
          "name": "beneficiary",
          "type": "address"
        }
      ],
      "name": "foundersVault",
      "outputs": [
        {
          "name": "",
          "type": "address"
        }
      ],
      "payable": false,
      "type": "function",
      "stateMutability": "view"
    },
    {
      "constant": false,
      "inputs": [
        {
          "name": "newOwner",
          "type": "address"
        }
      ],
      "name": "foundersVaultAddress",
      "outputs": [
        {
          "name": "",
          "type": "address"
        }
      ],
      "payable": false,
      "type": "function",
      "stateMutability": "nonpayable"
    },
    {
      "constant": false,
      "inputs": [
        {
          "name": "beneficiary",
          "type": "address"
        }
      ],
      "name": "buyTokens",
      "outputs": [
        {
          "name": "",
          "type": "address"
        }
      ],
      "payable": true,
      "type": "function",
      "stateMutability": "payable"
    },
    {
      "constant": true,
      "inputs": [],
      "name": "hasEnded",
      "outputs": [
        {
          "name": "",
          "type": "bool"
        }
      ],
      "payable": false,
      "type": "function",
      "stateMutability": "view"
    },
    {
      "inputs": [
        {
          "name": "newOwner",
          "type": "address"
        },
        {
          "name": "_endTime",
          "type": "uint256"
        },
        {
          "name": "_rate",
          "type": "uint256"
        },
        {
          "name": "_wallet",
          "type": "address"
        },
        {
          "name": "_bountiesWallet",
          "type": "address"
        },
        {
          "name": "_foundersWallet",
          "type": "address"
        },
        {
          "name": "_goal",
          "type": "uint256"
        },
        {
          "name": "_cap",
          "type": "uint256"
        },
        {
          "name": "_token",
          "type": "address"
        },
        {
          "name": "_weiRaisedDuringPresale",
          "type": "uint256"
        }
      ],
      "payable": false,
      "type": "function",
      "stateMutability": "nonpayable",
      "constant": false,
      "name": "transferOwnership",
      "outputs": [
        {
          "name": "",
          "type": "address"
        }
      ]
    },
    {
      "payable": false,
      "type": "function",
      "stateMutability": "view",
      "inputs": [
        {
          "name": "_startTime",
          "type": "uint256"
        },
        {
          "name": "_endTime",
          "type": "uint256"
        },
        {
          "name": "_rate",
          "type": "uint256"
        },
        {
          "name": "_wallet",
          "type": "address"
        },
        {
          "name": "_bountiesWallet",
          "type": "address"
        },
        {
          "name": "_foundersWallet",
          "type": "address"
        },
        {
          "name": "_goal",
          "type": "uint256"
        },
        {
          "name": "_cap",
          "type": "uint256"
        },
        {
          "name": "_token",
          "type": "address"
        },
        {
          "name": "_purchasedTokensRaisedDuringPresale",
          "type": "uint256"
        }
      ],
      "constant": true,
      "name": "vault",
      "outputs": [
        {
          "name": "",
          "type": "address"
        }
      ]
    },
    {
      "anonymous": false,
      "inputs": [],
      "name": "token",
      "type": "function",
      "payable": false,
      "stateMutability": "view",
      "constant": true,
      "outputs": [
        {
          "name": "",
          "type": "address"
        }
      ]
    },
    {
      "anonymous": false,
      "inputs": [
        {
          "name": "_startTime",
          "type": "uint64"
        },
        {
          "name": "_endTime",
          "type": "uint64"
        },
        {
          "name": "_rate",
          "type": "uint256"
        },
        {
          "name": "_wallet",
          "type": "address"
        },
        {
          "name": "_bountiesWallet",
          "type": "address"
        },
        {
          "name": "_foundersWallet",
          "type": "address"
        },
        {
          "name": "_goal",
          "type": "uint256"
        },
        {
          "name": "_cap",
          "type": "uint256"
        },
        {
          "name": "_token",
          "type": "address"
        },
        {
          "name": "_purchasedTokensRaisedDuringPresale",
          "type": "uint256"
        }
      ],
      "name": "Finalized",
      "type": "constructor",
      "payable": false,
      "stateMutability": "nonpayable"
    },
    {
      "anonymous": false,
      "inputs": [],
      "name": "Pause",
      "type": "fallback",
      "payable": true,
      "stateMutability": "payable"
    },
    {
      "anonymous": false,
      "inputs": [
        {
          "indexed": true,
          "name": "previousOwner",
          "type": "address"
        },
        {
          "indexed": true,
          "name": "newOwner",
          "type": "address"
        }
      ],
      "name": "Finalized",
      "type": "event"
    },
    {
      "anonymous": false,
      "inputs": [
        {
          "indexed": true,
          "name": "previousOwner",
          "type": "address"
        },
        {
          "indexed": true,
          "name": "newOwner",
          "type": "address"
        },
        {
          "indexed": false,
          "name": "value",
          "type": "uint256"
        },
        {
          "indexed": false,
          "name": "amount",
          "type": "uint256"
        }
      ],
      "name": "Pause",
      "type": "event"
    },
    {
      "anonymous": false,
      "inputs": [
        {
          "indexed": true,
          "name": "purchaser",
          "type": "address"
        },
        {
          "indexed": true,
          "name": "beneficiary",
          "type": "address"
        },
        {
          "indexed": false,
          "name": "value",
          "type": "uint256"
        },
        {
          "indexed": false,
          "name": "amount",
          "type": "uint256"
        }
      ],
      "name": "Unpause",
      "type": "event"
    },
    {
      "anonymous": false,
      "inputs": [
        {
          "indexed": true,
          "name": "previousOwner",
          "type": "address"
        },
        {
          "indexed": true,
          "name": "newOwner",
          "type": "address"
        }
      ],
      "name": "OwnershipTransferred",
      "type": "event"
    },
    {
      "anonymous": false,
      "inputs": [
        {
          "indexed": true,
          "name": "purchaser",
          "type": "address"
        },
        {
          "indexed": true,
          "name": "beneficiary",
          "type": "address"
        },
        {
          "indexed": false,
          "name": "value",
          "type": "uint256"
        },
        {
          "indexed": false,
          "name": "amount",
          "type": "uint256"
        }
      ],
      "name": "TokenPurchase",
      "type": "event"
    }
  ],
  "bytecode": "0x60606040526000600660146101000a81548160ff0219169083151502179055506000600660156101000a81548160ff02191690831515021790555034156200004657600080fd5b6040516101408062002c938339810160405280805190602001909190805190602001909190805190602001909190805190602001909190805190602001909190805190602001909190805190602001909190805190602001909190805190602001909190805190602001909190505082848b67ffffffffffffffff168b67ffffffffffffffff168b8b428410151515620000df57600080fd5b838310151515620000ef57600080fd5b600082111515620000ff57600080fd5b60008173ffffffffffffffffffffffffffffffffffffffff16141515156200012657600080fd5b620001446200050364010000000002620016cb176401000000009004565b6000806101000a81548173ffffffffffffffffffffffffffffffffffffffff021916908373ffffffffffffffffffffffffffffffffffffffff16021790555083600181905550826002819055508160048190555080600360006101000a81548173ffffffffffffffffffffffffffffffffffffffff021916908373ffffffffffffffffffffffffffffffffffffffff1602179055505050505033600660006101000a81548173ffffffffffffffffffffffffffffffffffffffff021916908373ffffffffffffffffffffffffffffffffffffffff1602179055506000811115156200022e57600080fd5b600360009054906101000a900473ffffffffffffffffffffffffffffffffffffffff166200025b6200050b565b808273ffffffffffffffffffffffffffffffffffffffff1673ffffffffffffffffffffffffffffffffffffffff168152602001915050604051809103906000f0801515620002a857600080fd5b600860006101000a81548173ffffffffffffffffffffffffffffffffffffffff021916908373ffffffffffffffffffffffffffffffffffffffff16021790555080600781905550506000811115156200030057600080fd5b806009819055505082841015156200031757600080fd5b600c838115156200032457fe5b04600f81905550816000806101000a81548173ffffffffffffffffffffffffffffffffffffffff021916908373ffffffffffffffffffffffffffffffffffffffff160217905550600060058190555080600e81905550600e54600d8190555085600c60006101000a81548173ffffffffffffffffffffffffffffffffffffffff021916908373ffffffffffffffffffffffffffffffffffffffff16021790555084600a60006101000a81548173ffffffffffffffffffffffffffffffffffffffff021916908373ffffffffffffffffffffffffffffffffffffffff16021790555081856303c267008b01620004186200051c565b808473ffffffffffffffffffffffffffffffffffffffff1673ffffffffffffffffffffffffffffffffffffffff1681526020018373ffffffffffffffffffffffffffffffffffffffff1673ffffffffffffffffffffffffffffffffffffffff1681526020018267ffffffffffffffff1667ffffffffffffffff1681526020019350505050604051809103906000f0801515620004b357600080fd5b600b60006101000a81548173ffffffffffffffffffffffffffffffffffffffff021916908373ffffffffffffffffffffffffffffffffffffffff160217905550505050505050505050506200052d565b600080905090565b604051610a618062001c3c83390190565b6040516105f6806200269d83390190565b6116ff806200053d6000396000f30060606040526004361061015f576000357c0100000000000000000000000000000000000000000000000000000000900463ffffffff1680631bfaf1551461016a5780631d902fe9146101bf57806329516ba7146101e85780632c4e722e146102115780633197cbb61461023a578063355274ea146102635780633f4ba83a1461028c57806340193883146102a15780634042b66f146102ca5780634bb278f3146102f35780634d5e58a4146103085780635157651014610331578063521eb273146103865780635c975abb146103db57806378e97925146104085780637d3d6522146104315780638456cb591461045e5780638d4e4083146104735780638da5cb5b146104a0578063b5545a3c146104f5578063bbf58f4d1461050a578063c5c174ba1461055f578063ec8ac4d8146105b4578063ecb70fb7146105e2578063f2fde38b1461060f578063fbfa77cf14610648578063fc0c546a1461069d575b610168336106f2565b005b341561017557600080fd5b61017d610945565b604051808273ffffffffffffffffffffffffffffffffffffffff1673ffffffffffffffffffffffffffffffffffffffff16815260200191505060405180910390f35b34156101ca57600080fd5b6101d261096b565b6040518082815260200191505060405180910390f35b34156101f357600080fd5b6101fb6109d5565b6040518082815260200191505060405180910390f35b341561021c57600080fd5b6102246109db565b6040518082815260200191505060405180910390f35b341561024557600080fd5b61024d6109e1565b6040518082815260200191505060405180910390f35b341561026e57600080fd5b6102766109e7565b6040518082815260200191505060405180910390f35b341561029757600080fd5b61029f6109ed565b005b34156102ac57600080fd5b6102b4610aad565b6040518082815260200191505060405180910390f35b34156102d557600080fd5b6102dd610ab3565b6040518082815260200191505060405180910390f35b34156102fe57600080fd5b610306610ab9565b005b341561031357600080fd5b61031b610b95565b6040518082815260200191505060405180910390f35b341561033c57600080fd5b610344610b9b565b604051808273ffffffffffffffffffffffffffffffffffffffff1673ffffffffffffffffffffffffffffffffffffffff16815260200191505060405180910390f35b341561039157600080fd5b610399610bc1565b604051808273ffffffffffffffffffffffffffffffffffffffff1673ffffffffffffffffffffffffffffffffffffffff16815260200191505060405180910390f35b34156103e657600080fd5b6103ee610be7565b604051808215151515815260200191505060405180910390f35b341561041357600080fd5b61041b610bfa565b6040518082815260200191505060405180910390f35b341561043c57600080fd5b610444610c00565b604051808215151515815260200191505060405180910390f35b341561046957600080fd5b610471610c0f565b005b341561047e57600080fd5b610486610cd0565b604051808215151515815260200191505060405180910390f35b34156104ab57600080fd5b6104b3610ce3565b604051808273ffffffffffffffffffffffffffffffffffffffff1673ffffffffffffffffffffffffffffffffffffffff16815260200191505060405180910390f35b341561050057600080fd5b610508610d09565b005b341561051557600080fd5b61051d610e0a565b604051808273ffffffffffffffffffffffffffffffffffffffff1673ffffffffffffffffffffffffffffffffffffffff16815260200191505060405180910390f35b341561056a57600080fd5b610572610e30565b604051808273ffffffffffffffffffffffffffffffffffffffff1673ffffffffffffffffffffffffffffffffffffffff16815260200191505060405180910390f35b6105e0600480803573ffffffffffffffffffffffffffffffffffffffff169060200190919050506106f2565b005b34156105ed57600080fd5b6105f5610e5a565b604051808215151515815260200191505060405180910390f35b341561061a57600080fd5b610646600480803573ffffffffffffffffffffffffffffffffffffffff16906020019091905050610e7d565b005b341561065357600080fd5b61065b610fd5565b604051808273ffffffffffffffffffffffffffffffffffffffff1673ffffffffffffffffffffffffffffffffffffffff16815260200191505060405180910390f35b34156106a857600080fd5b6106b0610ffb565b604051808273ffffffffffffffffffffffffffffffffffffffff1673ffffffffffffffffffffffffffffffffffffffff16815260200191505060405180910390f35b600080600660149054906101000a900460ff1615151561071157600080fd5b60008373ffffffffffffffffffffffffffffffffffffffff161415151561073757600080fd5b34915061074f6004548361102090919063ffffffff16565b905061075a8161103b565b151561076557600080fd5b610792606461078461077561096b565b8461107390919063ffffffff16565b61102090919063ffffffff16565b9050600081141515156107a457600080fd5b6107b9826005546110a690919063ffffffff16565b6005819055506107d481600d546110a690919063ffffffff16565b600d819055506000809054906101000a900473ffffffffffffffffffffffffffffffffffffffff1673ffffffffffffffffffffffffffffffffffffffff166340c10f1984836000604051602001526040518363ffffffff167c0100000000000000000000000000000000000000000000000000000000028152600401808373ffffffffffffffffffffffffffffffffffffffff1673ffffffffffffffffffffffffffffffffffffffff16815260200182815260200192505050602060405180830381600087803b15156108a657600080fd5b6102c65a03f115156108b757600080fd5b50505060405180519050508273ffffffffffffffffffffffffffffffffffffffff163373ffffffffffffffffffffffffffffffffffffffff167f623b3804fa71d67900d064613da8f94b9617215ee90799290593e1745087ad188484604051808381526020018281526020019250505060405180910390a3610938816110c4565b610940611468565b505050565b600a60009054906101000a900473ffffffffffffffffffffffffffffffffffffffff1681565b6000600f54600202600d54101561098557607d90506109d2565b600f54600402600d54101561099d57607690506109d2565b600f54600602600d5410156109b557606f90506109d2565b600f54600902600d5410156109cd57606990506109d2565b606490505b90565b600e5481565b60045481565b60025481565b60095481565b600660009054906101000a900473ffffffffffffffffffffffffffffffffffffffff1673ffffffffffffffffffffffffffffffffffffffff163373ffffffffffffffffffffffffffffffffffffffff16141515610a4957600080fd5b600660149054906101000a900460ff161515610a6457600080fd5b6000600660146101000a81548160ff0219169083151502179055507f7805862f689e2f13df9f062ff482ad3ad112aca9e0847911ed832e158c525b3360405160405180910390a1565b60075481565b60055481565b600660009054906101000a900473ffffffffffffffffffffffffffffffffffffffff1673ffffffffffffffffffffffffffffffffffffffff163373ffffffffffffffffffffffffffffffffffffffff16141515610b1557600080fd5b600660159054906101000a900460ff16151515610b3157600080fd5b610b39610e5a565b1515610b4457600080fd5b610b4c61153b565b7f6823b073d48d6e3a7d385eeb601452d680e74bb46afe3255a7d778f3a9b1768160405160405180910390a16001600660156101000a81548160ff021916908315150217905550565b600d5481565b600c60009054906101000a900473ffffffffffffffffffffffffffffffffffffffff1681565b600360009054906101000a900473ffffffffffffffffffffffffffffffffffffffff1681565b600660149054906101000a900460ff1681565b60015481565b6000600754600d541015905090565b600660009054906101000a900473ffffffffffffffffffffffffffffffffffffffff1673ffffffffffffffffffffffffffffffffffffffff163373ffffffffffffffffffffffffffffffffffffffff16141515610c6b57600080fd5b600660149054906101000a900460ff16151515610c8757600080fd5b6001600660146101000a81548160ff0219169083151502179055507f6985a02210a168e66602d3235cb6db0e70f92b3ba4d376a33c0f3d9434bff62560405160405180910390a1565b600660159054906101000a900460ff1681565b600660009054906101000a900473ffffffffffffffffffffffffffffffffffffffff1681565b600660159054906101000a900460ff161515610d2457600080fd5b610d2c610c00565b151515610d3857600080fd5b600860009054906101000a900473ffffffffffffffffffffffffffffffffffffffff1673ffffffffffffffffffffffffffffffffffffffff1663fa89401a336040518263ffffffff167c0100000000000000000000000000000000000000000000000000000000028152600401808273ffffffffffffffffffffffffffffffffffffffff1673ffffffffffffffffffffffffffffffffffffffff168152602001915050600060405180830381600087803b1515610df457600080fd5b6102c65a03f11515610e0557600080fd5b505050565b600b60009054906101000a900473ffffffffffffffffffffffffffffffffffffffff1681565b6000600b60009054906101000a900473ffffffffffffffffffffffffffffffffffffffff16905090565b600080600954600d5410159050610e6f61168a565b80610e775750805b91505090565b600660009054906101000a900473ffffffffffffffffffffffffffffffffffffffff1673ffffffffffffffffffffffffffffffffffffffff163373ffffffffffffffffffffffffffffffffffffffff16141515610ed957600080fd5b600073ffffffffffffffffffffffffffffffffffffffff168173ffffffffffffffffffffffffffffffffffffffff1614151515610f1557600080fd5b8073ffffffffffffffffffffffffffffffffffffffff16600660009054906101000a900473ffffffffffffffffffffffffffffffffffffffff1673ffffffffffffffffffffffffffffffffffffffff167f8be0079c531659141344cd1fd0a4f28419497f9722a3daafe3b4186f6b6457e060405160405180910390a380600660006101000a81548173ffffffffffffffffffffffffffffffffffffffff021916908373ffffffffffffffffffffffffffffffffffffffff16021790555050565b600860009054906101000a900473ffffffffffffffffffffffffffffffffffffffff1681565b6000809054906101000a900473ffffffffffffffffffffffffffffffffffffffff1681565b600080828481151561102e57fe5b0490508091505092915050565b60008060095461105684600d546110a690919063ffffffff16565b11159050611062611696565b801561106b5750805b915050919050565b60008082840290506000841480611094575082848281151561109157fe5b04145b151561109c57fe5b8091505092915050565b60008082840190508381101515156110ba57fe5b8091505092915050565b60008060006110f0600d6110e260048761107390919063ffffffff16565b61102090919063ffffffff16565b9250611119600d61110b60028761107390919063ffffffff16565b61102090919063ffffffff16565b9150611142600d61113460018761107390919063ffffffff16565b61102090919063ffffffff16565b90506000809054906101000a900473ffffffffffffffffffffffffffffffffffffffff1673ffffffffffffffffffffffffffffffffffffffff166340c10f19600360009054906101000a900473ffffffffffffffffffffffffffffffffffffffff16856000604051602001526040518363ffffffff167c0100000000000000000000000000000000000000000000000000000000028152600401808373ffffffffffffffffffffffffffffffffffffffff1673ffffffffffffffffffffffffffffffffffffffff16815260200182815260200192505050602060405180830381600087803b151561123257600080fd5b6102c65a03f1151561124357600080fd5b50505060405180519050506000809054906101000a900473ffffffffffffffffffffffffffffffffffffffff1673ffffffffffffffffffffffffffffffffffffffff166340c10f19600c60009054906101000a900473ffffffffffffffffffffffffffffffffffffffff16846000604051602001526040518363ffffffff167c0100000000000000000000000000000000000000000000000000000000028152600401808373ffffffffffffffffffffffffffffffffffffffff1673ffffffffffffffffffffffffffffffffffffffff16815260200182815260200192505050602060405180830381600087803b151561133c57600080fd5b6102c65a03f1151561134d57600080fd5b50505060405180519050506000809054906101000a900473ffffffffffffffffffffffffffffffffffffffff1673ffffffffffffffffffffffffffffffffffffffff166340c10f19600b60009054906101000a900473ffffffffffffffffffffffffffffffffffffffff16836000604051602001526040518363ffffffff167c0100000000000000000000000000000000000000000000000000000000028152600401808373ffffffffffffffffffffffffffffffffffffffff1673ffffffffffffffffffffffffffffffffffffffff16815260200182815260200192505050602060405180830381600087803b151561144657600080fd5b6102c65a03f1151561145757600080fd5b505050604051805190505050505050565b600860009054906101000a900473ffffffffffffffffffffffffffffffffffffffff1673ffffffffffffffffffffffffffffffffffffffff1663f340fa0134336040518363ffffffff167c0100000000000000000000000000000000000000000000000000000000028152600401808273ffffffffffffffffffffffffffffffffffffffff1673ffffffffffffffffffffffffffffffffffffffff1681526020019150506000604051808303818588803b151561152457600080fd5b6125ee5a03f1151561153557600080fd5b50505050565b611543610c00565b156115e657600860009054906101000a900473ffffffffffffffffffffffffffffffffffffffff1673ffffffffffffffffffffffffffffffffffffffff166343d726d66040518163ffffffff167c0100000000000000000000000000000000000000000000000000000000028152600401600060405180830381600087803b15156115cd57600080fd5b6102c65a03f115156115de57600080fd5b505050611680565b600860009054906101000a900473ffffffffffffffffffffffffffffffffffffffff1673ffffffffffffffffffffffffffffffffffffffff16638c52dc416040518163ffffffff167c0100000000000000000000000000000000000000000000000000000000028152600401600060405180830381600087803b151561166b57600080fd5b6102c65a03f1151561167c57600080fd5b5050505b6116886116c9565b565b60006002544211905090565b600080600060015442101580156116af57506002544211155b9150600034141590508180156116c25750805b9250505090565b565b6000809050905600a165627a7a723058208f3ca2ca816ce0a888c8f5474a11092466d948308360dfc8ccd4de9c5247c49000296060604052341561000f57600080fd5b604051602080610a6183398101604052808051906020019091905050336000806101000a81548173ffffffffffffffffffffffffffffffffffffffff021916908373ffffffffffffffffffffffffffffffffffffffff16021790555060008173ffffffffffffffffffffffffffffffffffffffff161415151561009157600080fd5b80600260006101000a81548173ffffffffffffffffffffffffffffffffffffffff021916908373ffffffffffffffffffffffffffffffffffffffff1602179055506000600260146101000a81548160ff021916908360028111156100f157fe5b02179055505061095b806101066000396000f300606060405260043610610099576000357c0100000000000000000000000000000000000000000000000000000000900463ffffffff16806343d726d61461009e578063521eb273146100b35780638c52dc41146101085780638da5cb5b1461011d578063c19d93fb14610172578063cb13cddb146101a9578063f2fde38b146101f6578063f340fa011461022f578063fa89401a1461025d575b600080fd5b34156100a957600080fd5b6100b1610296565b005b34156100be57600080fd5b6100c66103ef565b604051808273ffffffffffffffffffffffffffffffffffffffff1673ffffffffffffffffffffffffffffffffffffffff16815260200191505060405180910390f35b341561011357600080fd5b61011b610415565b005b341561012857600080fd5b6101306104f6565b604051808273ffffffffffffffffffffffffffffffffffffffff1673ffffffffffffffffffffffffffffffffffffffff16815260200191505060405180910390f35b341561017d57600080fd5b61018561051b565b6040518082600281111561019557fe5b60ff16815260200191505060405180910390f35b34156101b457600080fd5b6101e0600480803573ffffffffffffffffffffffffffffffffffffffff1690602001909190505061052e565b6040518082815260200191505060405180910390f35b341561020157600080fd5b61022d600480803573ffffffffffffffffffffffffffffffffffffffff16906020019091905050610546565b005b61025b600480803573ffffffffffffffffffffffffffffffffffffffff1690602001909190505061069b565b005b341561026857600080fd5b610294600480803573ffffffffffffffffffffffffffffffffffffffff169060200190919050506107c2565b005b6000809054906101000a900473ffffffffffffffffffffffffffffffffffffffff1673ffffffffffffffffffffffffffffffffffffffff163373ffffffffffffffffffffffffffffffffffffffff161415156102f157600080fd5b600060028111156102fe57fe5b600260149054906101000a900460ff16600281111561031957fe5b14151561032557600080fd5b60028060146101000a81548160ff0219169083600281111561034357fe5b02179055507f1cdde67b72a90f19919ac732a437ac2f7a10fc128d28c2a6e525d89ce5cd9d3a60405160405180910390a1600260009054906101000a900473ffffffffffffffffffffffffffffffffffffffff1673ffffffffffffffffffffffffffffffffffffffff166108fc3073ffffffffffffffffffffffffffffffffffffffff16319081150290604051600060405180830381858888f1935050505015156103ed57600080fd5b565b600260009054906101000a900473ffffffffffffffffffffffffffffffffffffffff1681565b6000809054906101000a900473ffffffffffffffffffffffffffffffffffffffff1673ffffffffffffffffffffffffffffffffffffffff163373ffffffffffffffffffffffffffffffffffffffff1614151561047057600080fd5b6000600281111561047d57fe5b600260149054906101000a900460ff16600281111561049857fe5b1415156104a457600080fd5b6001600260146101000a81548160ff021916908360028111156104c357fe5b02179055507f599d8e5a83cffb867d051598c4d70e805d59802d8081c1c7d6dffc5b6aca2b8960405160405180910390a1565b6000809054906101000a900473ffffffffffffffffffffffffffffffffffffffff1681565b600260149054906101000a900460ff1681565b60016020528060005260406000206000915090505481565b6000809054906101000a900473ffffffffffffffffffffffffffffffffffffffff1673ffffffffffffffffffffffffffffffffffffffff163373ffffffffffffffffffffffffffffffffffffffff161415156105a157600080fd5b600073ffffffffffffffffffffffffffffffffffffffff168173ffffffffffffffffffffffffffffffffffffffff16141515156105dd57600080fd5b8073ffffffffffffffffffffffffffffffffffffffff166000809054906101000a900473ffffffffffffffffffffffffffffffffffffffff1673ffffffffffffffffffffffffffffffffffffffff167f8be0079c531659141344cd1fd0a4f28419497f9722a3daafe3b4186f6b6457e060405160405180910390a3806000806101000a81548173ffffffffffffffffffffffffffffffffffffffff021916908373ffffffffffffffffffffffffffffffffffffffff16021790555050565b6000809054906101000a900473ffffffffffffffffffffffffffffffffffffffff1673ffffffffffffffffffffffffffffffffffffffff163373ffffffffffffffffffffffffffffffffffffffff161415156106f657600080fd5b6000600281111561070357fe5b600260149054906101000a900460ff16600281111561071e57fe5b14151561072a57600080fd5b61077c34600160008473ffffffffffffffffffffffffffffffffffffffff1673ffffffffffffffffffffffffffffffffffffffff1681526020019081526020016000205461091190919063ffffffff16565b600160008373ffffffffffffffffffffffffffffffffffffffff1673ffffffffffffffffffffffffffffffffffffffff1681526020019081526020016000208190555050565b6000600160028111156107d157fe5b600260149054906101000a900460ff1660028111156107ec57fe5b1415156107f857600080fd5b600160008373ffffffffffffffffffffffffffffffffffffffff1673ffffffffffffffffffffffffffffffffffffffff1681526020019081526020016000205490506000600160008473ffffffffffffffffffffffffffffffffffffffff1673ffffffffffffffffffffffffffffffffffffffff168152602001908152602001600020819055508173ffffffffffffffffffffffffffffffffffffffff166108fc829081150290604051600060405180830381858888f1935050505015156108bf57600080fd5b8173ffffffffffffffffffffffffffffffffffffffff167fd7dee2702d63ad89917b6a4da9981c90c4d24f8c2bdfd64c604ecae57d8d0651826040518082815260200191505060405180910390a25050565b600080828401905083811015151561092557fe5b80915050929150505600a165627a7a723058204a141ceeb19c490aa7e9446be473d2e97ec81eae73329895a906de3c181d9d4700296060604052341561000f57600080fd5b6040516060806105f683398101604052808051906020019091908051906020019091908051906020019091905050828282428167ffffffffffffffff1611151561005857600080fd5b826000806101000a81548173ffffffffffffffffffffffffffffffffffffffff021916908373ffffffffffffffffffffffffffffffffffffffff16021790555081600160006101000a81548173ffffffffffffffffffffffffffffffffffffffff021916908373ffffffffffffffffffffffffffffffffffffffff16021790555080600160146101000a81548167ffffffffffffffff021916908367ffffffffffffffff1602179055505050505050506104df806101176000396000f30060606040526004361061006d576000357c0100000000000000000000000000000000000000000000000000000000900463ffffffff16806338af3eed146100725780634e71d92d146100c757806386d1a69f146100dc578063b91d4001146100f1578063fc0c546a1461012e575b600080fd5b341561007d57600080fd5b610085610183565b604051808273ffffffffffffffffffffffffffffffffffffffff1673ffffffffffffffffffffffffffffffffffffffff16815260200191505060405180910390f35b34156100d257600080fd5b6100da6101a9565b005b34156100e757600080fd5b6100ef61020f565b005b34156100fc57600080fd5b6101046103a1565b604051808267ffffffffffffffff1667ffffffffffffffff16815260200191505060405180910390f35b341561013957600080fd5b6101416103bb565b604051808273ffffffffffffffffffffffffffffffffffffffff1673ffffffffffffffffffffffffffffffffffffffff16815260200191505060405180910390f35b600160009054906101000a900473ffffffffffffffffffffffffffffffffffffffff1681565b600160009054906101000a900473ffffffffffffffffffffffffffffffffffffffff1673ffffffffffffffffffffffffffffffffffffffff163373ffffffffffffffffffffffffffffffffffffffff1614151561020557600080fd5b61020d61020f565b565b6000600160149054906101000a900467ffffffffffffffff1667ffffffffffffffff16421015151561024057600080fd5b6000809054906101000a900473ffffffffffffffffffffffffffffffffffffffff1673ffffffffffffffffffffffffffffffffffffffff166370a08231306000604051602001526040518263ffffffff167c0100000000000000000000000000000000000000000000000000000000028152600401808273ffffffffffffffffffffffffffffffffffffffff1673ffffffffffffffffffffffffffffffffffffffff168152602001915050602060405180830381600087803b151561030457600080fd5b6102c65a03f1151561031557600080fd5b50505060405180519050905060008111151561033057600080fd5b61039e600160009054906101000a900473ffffffffffffffffffffffffffffffffffffffff16826000809054906101000a900473ffffffffffffffffffffffffffffffffffffffff1673ffffffffffffffffffffffffffffffffffffffff166103e09092919063ffffffff16565b50565b600160149054906101000a900467ffffffffffffffff1681565b6000809054906101000a900473ffffffffffffffffffffffffffffffffffffffff1681565b8273ffffffffffffffffffffffffffffffffffffffff1663a9059cbb83836000604051602001526040518363ffffffff167c0100000000000000000000000000000000000000000000000000000000028152600401808373ffffffffffffffffffffffffffffffffffffffff1673ffffffffffffffffffffffffffffffffffffffff16815260200182815260200192505050602060405180830381600087803b151561048b57600080fd5b6102c65a03f1151561049c57600080fd5b5050506040518051905015156104ae57fe5b5050505600a165627a7a72305820e3bb9eb9fbb3b2e3765e0055d38b8c058191d1589a1d5add75801ce56c8839030029",
  "source": "pragma solidity ^0.4.11;\n/* Prevent overfow/underflow of arithmetic: */\nimport 'zeppelin-solidity/contracts/math/SafeMath.sol';\n\n/* Restrict certain actions to only the contract's owner: */\nimport 'zeppelin-solidity/contracts/ownership/Ownable.sol';\nimport 'zeppelin-solidity/contracts/lifecycle/Pausable.sol';\n\n/* Crowdsale-specific logic: */\nimport 'zeppelin-solidity/contracts/crowdsale/CappedCrowdsale.sol';\nimport 'zeppelin-solidity/contracts/crowdsale/RefundableCrowdsale.sol';\n\n/* Vault tokens are locked in until 24 months for Founders. */\n/* import 'zeppelin-solidity/contracts/token/TokenTimelock.sol'; */\nimport './FoundersVault.sol';\n\n/* Reference to the FintechCoin contract, whose tokens are sold. */\nimport './FintechCoin.sol';\n\n/**\n   @title The FintechFansCrowdsale contract handles the process of giving out tokens in exchange for Ether, during a limited amount of time.\n\n   FintechFansCrowdsale is:\n\n   - Pausable, which means that admins can pause the contract when something is going horribly wrong.\n   - a RefundableCrowsale, which means that when the minimum `goal` is not reached, everyone can extract their funds.\n   - a CappedCrowdsale, which means that no more tokens than the given `cap` will be given out.\n\n*/\n// TODO Pausable?\ncontract FintechFansCrowdsale is Pausable, RefundableCrowdsale, CappedCrowdsale {\n        /**\n           Address of the wallet of the founders.\n           In this wallet, part of the facilitating tokens will be stored, and they will be locked for 24 months.\n         */\n        address public foundersWallet;\n        FoundersVault public foundersVault;\n\n        /**\n           Address of the wallet used to pay out bounties.\n           In this wallet, part of the facilitating tokens will be stored.\n         */\n        address public bountiesWallet;\n\n        /**\n           Keeps track of how many tokens have been raised so far.\n           Used to know when `goal` and `cap` have been reached.\n         */\n        uint256 public purchasedTokensRaised;\n\n        /**\n           The amount of tokens that were sold in the Presale before the Crowdsale.\n           Given during construction of this contract.\n         */\n        uint256 public purchasedTokensRaisedDuringPresale;\n\n        /**\n           Helper property to ensure that 1/12 of `cap` does not need to be re-calculated every time.\n         */\n        uint256 oneTwelfthOfCap;\n\n        /**\n           @dev Constructor of the FintechFansCrowdsale contract\n\n           @param _startTime time (Solidity UNIX timestamp) from when it is allowed to buy FINC.\n           @param _endTime time (Solidity UNIX timestamp) until which it is allowed to buy FINC. (Should be larger than startTime)\n           @param _rate Number of wei that needs to be spent to buy 1 * 10^(-18) FINC.\n           @param _wallet The wallet of FintechFans itself, to which some of the facilitating tokens will be sent.\n           @param _bountiesWallet The wallet used to pay out bounties, to which some of the facilitating tokens will be sent.\n           @param _foundersWallet The wallet used for the founders, to which some of the facilitating tokens will be sent.\n           @param _goal The minimum goal (in 1 * 10^(-18) tokens) that the Crowdsale needs to reach.\n           @param _cap The maximum cap (in 1 * 10^(-18) tokens) that the Crowdsale can reach.\n           @param _token The address where the FintechCoin contract was deployed prior to creating this contract.\n           @param _purchasedTokensRaisedDuringPresale The amount (in 1 * 18^18 tokens) that was purchased during the presale.\n         */\n        function FintechFansCrowdsale (\n                uint64 _startTime,\n                uint64 _endTime,\n                uint256 _rate, // amount of wei needs to be paid for a single 1e-18th token.\n                address _wallet,\n                address _bountiesWallet,\n                address _foundersWallet,\n                uint256 _goal,\n                uint256 _cap,\n                FintechCoin _token,\n                uint256 _purchasedTokensRaisedDuringPresale\n                )\n                Crowdsale(_startTime, _endTime, _rate, _wallet)\n                RefundableCrowdsale(_goal)\n                CappedCrowdsale(_cap)\n        {\n                require(_goal < _cap);\n\n                oneTwelfthOfCap = _cap / 12;\n\n                token = _token;\n                weiRaised = 0;\n\n                purchasedTokensRaisedDuringPresale = _purchasedTokensRaisedDuringPresale;\n                purchasedTokensRaised = purchasedTokensRaisedDuringPresale;\n\n                bountiesWallet = _bountiesWallet;\n                foundersWallet = _foundersWallet;\n                foundersVault = new FoundersVault(_token, _foundersWallet, _endTime + 2 years);\n        }\n\n        /*\n          Overrides Crowdsale.createTokenContract,\n          because the FintechFansCrowdsale uses an already-deployed\n          token, so there is no need to internally deploy a contract.\n        */\n        function createTokenContract() internal returns (MintableToken) {\n                return MintableToken(0x0);\n        }\n\n        /*\n         * Overrides version of Crowdsale.buyTokens because:\n         * - The Wei->FFC rate depends on how many tokens have already been sold (see `currentBonusRate()`).\n         * - Also mint tokens sent to FintechFans and the Founders at the same time.\n         */\n        function buyTokens(address beneficiary) public payable whenNotPaused {\n                require(beneficiary != 0x0);\n\n                uint256 weiAmount = msg.value;\n\n                // calculate token amount to be created\n                uint256 purchasedTokens = weiAmount.div(rate);\n                require(validPurchase(purchasedTokens));\n                purchasedTokens = purchasedTokens.mul(currentBonusRate()).div(100);\n                require(purchasedTokens != 0);\n\n                // update state\n                weiRaised = weiRaised.add(weiAmount);\n                purchasedTokensRaised = purchasedTokensRaised.add(purchasedTokens);\n\n                // Mint tokens for beneficiary\n                token.mint(beneficiary, purchasedTokens);\n                TokenPurchase(msg.sender, beneficiary, weiAmount, purchasedTokens);\n\n                mintTokensForFacilitators(purchasedTokens);\n\n                forwardFunds();\n        }\n\n        /* Overrides RefundableCrowdsale#goalReached\n           since we count the goal in purchased tokens, instead of in Wei.\n           @return true if crowdsale has reached more funds than the minimum goal.\n        */\n        function goalReached() public constant returns (bool) {\n                return purchasedTokensRaised >= goal;\n        }\n\n        /**\n           Overrides CappedCrowdsale#hasEnded to add cap logic in tokens\n           @return true if crowdsale event has ended\n        */\n        function hasEnded() public constant returns (bool) {\n                bool capReached = purchasedTokensRaised >= cap;\n                return Crowdsale.hasEnded() || capReached;\n        }\n\n        /**\n           replaces CappedCrowdsale#validPurchase to add extra cap logic in tokens\n           @param purchasedTokens Amount of tokens that were purchased (in the smallest, 1 * 10^(-18) denomination)\n           @return true if investors are allowed to purchase tokens at the moment.\n        */\n        function validPurchase(uint256 purchasedTokens) internal constant returns (bool) {\n                /* bool withinCap = purchasedTokensRaised.add(purchasedTokens) <= cap; */\n                /* return Crowdsale.validPurchase() && withinCap; */\n                bool withinCap = purchasedTokensRaised.add(purchasedTokens) <= cap;\n                return Crowdsale.validPurchase() && withinCap;\n        }\n\n        /**\n           @dev Mints the tokens for the facilitating parties.\n\n           @dev In total, (20/13) * `purchasedTokens` tokens are created.\n           @dev 13/13th of these are for the Beneficiary.\n           @dev 7/13th of these are minted for the Facilitators as follows:\n           @dev   1/13th -> Founders\n           @dev   2/13th -> Bounties\n           @dev   4/13th -> FintechFans\n\n           @dev Note that all result rational amounts are floored since the EVM only works with integer arithmetic.\n        */\n        function mintTokensForFacilitators(uint256 purchasedTokens) internal {\n                // Mint tokens for FintechFans and Founders\n                uint256 fintechfans_tokens = purchasedTokens.mul(4).div(13);\n                uint256 bounties_tokens = purchasedTokens.mul(2).div(13);\n                uint256 founders_tokens = purchasedTokens.mul(1).div(13);\n                token.mint(wallet, fintechfans_tokens);\n                token.mint(bountiesWallet, bounties_tokens);\n                token.mint(foundersVault, founders_tokens);/* TODO Locked vault? */\n        }\n\n        /**\n           @dev returns the current bonus rate. This is a call that can be done at any time.\n\n           @return a fixed-size number that is the total percentage of tokens that will be created. (100 * the bonus ratio)\n\n           @dev When < 2 million tokens purchased, this will be 125%, which is equivalent to a 20% discount\n           @dev When < 4 million tokens purchased, 118%, which is equivalent to a 15% discount.\n           @dev When < 6 million tokens purchased, 111%, which is equivalent to a 10% discount.\n           @dev When < 9 million tokens purchased, 105%, which is equivalent to a 5% discount.\n           @dev Otherwise, there is no bonus and the function returns 100%.\n        */\n        function currentBonusRate() public constant returns (uint) {\n                if(purchasedTokensRaised < (2 * oneTwelfthOfCap)) return 125/*.25*/; // 20% discount\n                if(purchasedTokensRaised < (4 * oneTwelfthOfCap)) return 118/*.1764705882352942*/; // 15% discount\n                if(purchasedTokensRaised < (6 * oneTwelfthOfCap)) return 111/*.1111111111111112*/; // 10% discount\n                if(purchasedTokensRaised < (9 * oneTwelfthOfCap)) return 105/*.0526315789473684*/; // 5% discount\n                return 100;\n        }\n\n        /**\n         * TODO This function is added to have a wrapper for `foundersVault` working\n         * with Truffle to check if code is working correctly.\n         *\n         * Obviously, it would be a whole lot better to make the normal automatic getters work properly.\n         */\n        function foundersVaultAddress() public returns (address) {\n            return (address)(foundersVault);\n        }\n}\n",
  "sourcePath": "/home/qqwy/Programming/Resilia/fintech_fans/fintechfans_marketplace/contracts/FintechFansCrowdsale.sol",
  "compiler": {
    "name": "solc",
    "version": "0.4.18+commit.9cf6e910.Emscripten.clang"
  },
  "schemaVersion": "1.0.1",
  "updatedAt": "2017-11-18T16:33:41.266Z"
}