{
  "contractName": "RefundVault",
  "abi": [
    {
      "constant": false,
      "inputs": [],
      "name": "close",
      "outputs": [],
      "payable": false,
      "type": "function",
      "stateMutability": "nonpayable"
    },
    {
      "constant": true,
      "inputs": [],
      "name": "wallet",
      "outputs": [
        {
          "name": "",
          "type": "address"
        }
      ],
      "payable": false,
      "type": "function",
      "stateMutability": "view"
    },
    {
      "constant": false,
      "inputs": [],
      "name": "enableRefunds",
      "outputs": [],
      "payable": false,
      "type": "function",
      "stateMutability": "nonpayable"
    },
    {
      "constant": true,
      "inputs": [],
      "name": "owner",
      "outputs": [
        {
          "name": "",
          "type": "address"
        }
      ],
      "payable": false,
      "type": "function",
      "stateMutability": "view"
    },
    {
      "constant": true,
      "inputs": [],
      "name": "state",
      "outputs": [
        {
          "name": "",
          "type": "uint8"
        }
      ],
      "payable": false,
      "type": "function",
      "stateMutability": "view"
    },
    {
      "constant": true,
      "inputs": [
        {
          "name": "",
          "type": "address"
        }
      ],
      "name": "deposited",
      "outputs": [
        {
          "name": "",
          "type": "uint256"
        }
      ],
      "payable": false,
      "type": "function",
      "stateMutability": "view"
    },
    {
      "constant": false,
      "inputs": [
        {
          "name": "newOwner",
          "type": "address"
        }
      ],
      "name": "transferOwnership",
      "outputs": [],
      "payable": false,
      "type": "function",
      "stateMutability": "nonpayable"
    },
    {
      "constant": false,
      "inputs": [
        {
          "name": "investor",
          "type": "address"
        }
      ],
      "name": "deposit",
      "outputs": [],
      "payable": true,
      "type": "function",
      "stateMutability": "payable"
    },
    {
      "constant": false,
      "inputs": [
        {
          "name": "investor",
          "type": "address"
        }
      ],
      "name": "refund",
      "outputs": [],
      "payable": false,
      "type": "function",
      "stateMutability": "nonpayable"
    },
    {
      "inputs": [
        {
          "name": "_wallet",
          "type": "address"
        }
      ],
      "payable": false,
      "type": "constructor",
      "stateMutability": "nonpayable"
    },
    {
      "anonymous": false,
      "inputs": [],
      "name": "Closed",
      "type": "event"
    },
    {
      "anonymous": false,
      "inputs": [],
      "name": "RefundsEnabled",
      "type": "event"
    },
    {
      "anonymous": false,
      "inputs": [
        {
          "indexed": true,
          "name": "beneficiary",
          "type": "address"
        },
        {
          "indexed": false,
          "name": "weiAmount",
          "type": "uint256"
        }
      ],
      "name": "Refunded",
      "type": "event"
    },
    {
      "anonymous": false,
      "inputs": [
        {
          "indexed": true,
          "name": "previousOwner",
          "type": "address"
        },
        {
          "indexed": true,
          "name": "newOwner",
          "type": "address"
        }
      ],
      "name": "OwnershipTransferred",
      "type": "event"
    }
  ],
  "bytecode": "0x6060604052341561000f57600080fd5b60405160208061060a8339810160405280805160008054600160a060020a03191633600160a060020a039081169190911790915590925082161515905061005557600080fd5b60028054600160a060020a031916600160a060020a03929092169190911760a060020a60ff021916905561057c8061008e6000396000f300606060405236156100965763ffffffff7c010000000000000000000000000000000000000000000000000000000060003504166343d726d6811461009b578063521eb273146100b05780638c52dc41146100df5780638da5cb5b146100f2578063c19d93fb14610105578063cb13cddb1461013c578063f2fde38b1461016d578063f340fa011461018c578063fa89401a146101a0575b600080fd5b34156100a657600080fd5b6100ae6101bf565b005b34156100bb57600080fd5b6100c361029a565b604051600160a060020a03909116815260200160405180910390f35b34156100ea57600080fd5b6100ae6102a9565b34156100fd57600080fd5b6100c361033a565b341561011057600080fd5b610118610349565b6040518082600281111561012857fe5b60ff16815260200191505060405180910390f35b341561014757600080fd5b61015b600160a060020a0360043516610359565b60405190815260200160405180910390f35b341561017857600080fd5b6100ae600160a060020a036004351661036b565b6100ae600160a060020a0360043516610406565b34156101ab57600080fd5b6100ae600160a060020a036004351661048a565b60005433600160a060020a039081169116146101da57600080fd5b60006002805460a060020a900460ff16908111156101f457fe5b146101fe57600080fd5b6002805474ff00000000000000000000000000000000000000001916740200000000000000000000000000000000000000001790557f1cdde67b72a90f19919ac732a437ac2f7a10fc128d28c2a6e525d89ce5cd9d3a60405160405180910390a1600254600160a060020a039081169030163180156108fc0290604051600060405180830381858888f19350505050151561029857600080fd5b565b600254600160a060020a031681565b60005433600160a060020a039081169116146102c457600080fd5b60006002805460a060020a900460ff16908111156102de57fe5b146102e857600080fd5b6002805474ff0000000000000000000000000000000000000000191660a060020a1790557f599d8e5a83cffb867d051598c4d70e805d59802d8081c1c7d6dffc5b6aca2b8960405160405180910390a1565b600054600160a060020a031681565b60025460a060020a900460ff1681565b60016020526000908152604090205481565b60005433600160a060020a0390811691161461038657600080fd5b600160a060020a038116151561039b57600080fd5b600054600160a060020a0380831691167f8be0079c531659141344cd1fd0a4f28419497f9722a3daafe3b4186f6b6457e060405160405180910390a36000805473ffffffffffffffffffffffffffffffffffffffff1916600160a060020a0392909216919091179055565b60005433600160a060020a0390811691161461042157600080fd5b60006002805460a060020a900460ff169081111561043b57fe5b1461044557600080fd5b600160a060020a03811660009081526001602052604090205461046e903463ffffffff61053a16565b600160a060020a03909116600090815260016020526040902055565b600060016002805460a060020a900460ff16908111156104a657fe5b146104b057600080fd5b50600160a060020a038116600081815260016020526040808220805492905590919082156108fc0290839051600060405180830381858888f1935050505015156104f957600080fd5b81600160a060020a03167fd7dee2702d63ad89917b6a4da9981c90c4d24f8c2bdfd64c604ecae57d8d06518260405190815260200160405180910390a25050565b60008282018381101561054957fe5b93925050505600a165627a7a7230582096543a3febfe5112626b3166e7aad6973708a4078ab520954003a3fec87e3f6b0029",
  "source": "pragma solidity ^0.4.11;\n\nimport '../math/SafeMath.sol';\nimport '../ownership/Ownable.sol';\n\n/**\n * @title RefundVault\n * @dev This contract is used for storing funds while a crowdsale\n * is in progress. Supports refunding the money if crowdsale fails,\n * and forwarding it if crowdsale is successful.\n */\ncontract RefundVault is Ownable {\n  using SafeMath for uint256;\n\n  enum State { Active, Refunding, Closed }\n\n  mapping (address => uint256) public deposited;\n  address public wallet;\n  State public state;\n\n  event Closed();\n  event RefundsEnabled();\n  event Refunded(address indexed beneficiary, uint256 weiAmount);\n\n  function RefundVault(address _wallet) {\n    require(_wallet != 0x0);\n    wallet = _wallet;\n    state = State.Active;\n  }\n\n  function deposit(address investor) onlyOwner public payable {\n    require(state == State.Active);\n    deposited[investor] = deposited[investor].add(msg.value);\n  }\n\n  function close() onlyOwner public {\n    require(state == State.Active);\n    state = State.Closed;\n    Closed();\n    wallet.transfer(this.balance);\n  }\n\n  function enableRefunds() onlyOwner public {\n    require(state == State.Active);\n    state = State.Refunding;\n    RefundsEnabled();\n  }\n\n  function refund(address investor) public {\n    require(state == State.Refunding);\n    uint256 depositedValue = deposited[investor];\n    deposited[investor] = 0;\n    investor.transfer(depositedValue);\n    Refunded(investor, depositedValue);\n  }\n}\n",
  "sourcePath": "zeppelin-solidity/contracts/crowdsale/RefundVault.sol",
  "schemaVersion": "1.0.0",
  "updatedAt": "2017-10-16T08:06:29.701Z"
}