{
  "contractName": "ZenoToken",
  "abi": [
    {
      "constant": true,
      "inputs": [],
      "name": "name",
      "outputs": [
        {
          "name": "",
          "type": "string"
        }
      ],
      "payable": false,
      "type": "function",
      "stateMutability": "view"
    },
    {
      "constant": false,
      "inputs": [
        {
          "name": "spender",
          "type": "address"
        },
        {
          "name": "value",
          "type": "uint256"
        }
      ],
      "name": "approve",
      "outputs": [
        {
          "name": "success",
          "type": "bool"
        }
      ],
      "payable": false,
      "type": "function",
      "stateMutability": "nonpayable"
    },
    {
      "constant": true,
      "inputs": [
        {
          "name": "owner",
          "type": "address"
        }
      ],
      "name": "rawBalanceOf",
      "outputs": [
        {
          "name": "balance",
          "type": "uint256"
        }
      ],
      "payable": false,
      "type": "function",
      "stateMutability": "view"
    },
    {
      "constant": true,
      "inputs": [],
      "name": "totalSupply",
      "outputs": [
        {
          "name": "total_supply",
          "type": "uint256"
        }
      ],
      "payable": false,
      "type": "function",
      "stateMutability": "view"
    },
    {
      "constant": false,
      "inputs": [
        {
          "name": "from",
          "type": "address"
        },
        {
          "name": "to",
          "type": "address"
        },
        {
          "name": "value",
          "type": "uint256"
        }
      ],
      "name": "transferFrom",
      "outputs": [
        {
          "name": "success",
          "type": "bool"
        }
      ],
      "payable": false,
      "type": "function",
      "stateMutability": "nonpayable"
    },
    {
      "constant": true,
      "inputs": [],
      "name": "decimals",
      "outputs": [
        {
          "name": "",
          "type": "uint8"
        }
      ],
      "payable": false,
      "type": "function",
      "stateMutability": "view"
    },
    {
      "constant": true,
      "inputs": [],
      "name": "standard",
      "outputs": [
        {
          "name": "",
          "type": "string"
        }
      ],
      "payable": false,
      "type": "function",
      "stateMutability": "view"
    },
    {
      "constant": false,
      "inputs": [
        {
          "name": "to",
          "type": "address"
        },
        {
          "name": "raw_value",
          "type": "uint256"
        }
      ],
      "name": "rawTransfer",
      "outputs": [
        {
          "name": "success",
          "type": "bool"
        }
      ],
      "payable": false,
      "type": "function",
      "stateMutability": "nonpayable"
    },
    {
      "constant": true,
      "inputs": [
        {
          "name": "owner",
          "type": "address"
        }
      ],
      "name": "balanceOf",
      "outputs": [
        {
          "name": "balance",
          "type": "uint256"
        }
      ],
      "payable": false,
      "type": "function",
      "stateMutability": "view"
    },
    {
      "constant": true,
      "inputs": [],
      "name": "symbol",
      "outputs": [
        {
          "name": "",
          "type": "string"
        }
      ],
      "payable": false,
      "type": "function",
      "stateMutability": "view"
    },
    {
      "constant": false,
      "inputs": [
        {
          "name": "value",
          "type": "uint256"
        }
      ],
      "name": "redistribute",
      "outputs": [
        {
          "name": "success",
          "type": "bool"
        }
      ],
      "payable": false,
      "type": "function",
      "stateMutability": "nonpayable"
    },
    {
      "constant": false,
      "inputs": [
        {
          "name": "from",
          "type": "address"
        },
        {
          "name": "value",
          "type": "uint256"
        }
      ],
      "name": "redistributeFrom",
      "outputs": [
        {
          "name": "success",
          "type": "bool"
        }
      ],
      "payable": false,
      "type": "function",
      "stateMutability": "nonpayable"
    },
    {
      "constant": false,
      "inputs": [
        {
          "name": "to",
          "type": "address"
        },
        {
          "name": "value",
          "type": "uint256"
        }
      ],
      "name": "transfer",
      "outputs": [
        {
          "name": "success",
          "type": "bool"
        }
      ],
      "payable": false,
      "type": "function",
      "stateMutability": "nonpayable"
    },
    {
      "constant": true,
      "inputs": [
        {
          "name": "owner",
          "type": "address"
        },
        {
          "name": "spender",
          "type": "address"
        }
      ],
      "name": "rawAllowance",
      "outputs": [
        {
          "name": "remaining",
          "type": "uint256"
        }
      ],
      "payable": false,
      "type": "function",
      "stateMutability": "view"
    },
    {
      "constant": false,
      "inputs": [
        {
          "name": "_spender",
          "type": "address"
        },
        {
          "name": "value",
          "type": "uint256"
        },
        {
          "name": "_extraData",
          "type": "bytes"
        }
      ],
      "name": "approveAndCall",
      "outputs": [
        {
          "name": "success",
          "type": "bool"
        }
      ],
      "payable": false,
      "type": "function",
      "stateMutability": "nonpayable"
    },
    {
      "constant": true,
      "inputs": [
        {
          "name": "owner",
          "type": "address"
        },
        {
          "name": "spender",
          "type": "address"
        }
      ],
      "name": "allowance",
      "outputs": [
        {
          "name": "remaining",
          "type": "uint256"
        }
      ],
      "payable": false,
      "type": "function",
      "stateMutability": "view"
    },
    {
      "inputs": [
        {
          "name": "name",
          "type": "string"
        },
        {
          "name": "symbol",
          "type": "string"
        },
        {
          "name": "decimals",
          "type": "uint8"
        },
        {
          "name": "totalStartingSupply",
          "type": "uint256"
        }
      ],
      "payable": false,
      "type": "constructor",
      "stateMutability": "nonpayable"
    },
    {
      "anonymous": false,
      "inputs": [
        {
          "indexed": true,
          "name": "from",
          "type": "address"
        },
        {
          "indexed": true,
          "name": "to",
          "type": "address"
        },
        {
          "indexed": false,
          "name": "value",
          "type": "uint256"
        }
      ],
      "name": "Transfer",
      "type": "event"
    },
    {
      "anonymous": false,
      "inputs": [
        {
          "indexed": true,
          "name": "from",
          "type": "address"
        },
        {
          "indexed": true,
          "name": "to",
          "type": "address"
        },
        {
          "indexed": false,
          "name": "raw_value",
          "type": "uint256"
        }
      ],
      "name": "RawTransfer",
      "type": "event"
    },
    {
      "anonymous": false,
      "inputs": [
        {
          "indexed": true,
          "name": "from",
          "type": "address"
        },
        {
          "indexed": false,
          "name": "value",
          "type": "uint256"
        }
      ],
      "name": "Redistribute",
      "type": "event"
    },
    {
      "anonymous": false,
      "inputs": [
        {
          "indexed": true,
          "name": "from",
          "type": "address"
        },
        {
          "indexed": false,
          "name": "raw_value",
          "type": "uint256"
        }
      ],
      "name": "RawRedistribute",
      "type": "event"
    },
    {
      "anonymous": false,
      "inputs": [
        {
          "indexed": false,
          "name": "whole",
          "type": "uint256"
        }
      ],
      "name": "UpdatedWhole",
      "type": "event"
    },
    {
      "anonymous": false,
      "inputs": [
        {
          "indexed": true,
          "name": "_owner",
          "type": "address"
        },
        {
          "indexed": true,
          "name": "_spender",
          "type": "address"
        },
        {
          "indexed": false,
          "name": "_value",
          "type": "uint256"
        }
      ],
      "name": "Approval",
      "type": "event"
    }
  ],
  "bytecode": "0x606060405260408051908101604052601081527f5a656e6f546f6b656e2076302e322e30000000000000000000000000000000006020820152600390805161004b929160200190610118565b507f8000000000000000000000000000000000000000000000000000000000000000600555341561007b57600080fd5b60405162000f2538038062000f2583398101604052808051820191906020018051820191906020018051919060200180519150849050838360008380516100c6929160200190610118565b5060018280516100da929160200190610118565b506002805460ff191660ff929092169190911790555050600455505060055433600160a060020a0316600090815260066020526040902055506101b3565b828054600181600116156101000203166002900490600052602060002090601f016020900481019282601f1061015957805160ff1916838001178555610186565b82800160010185558215610186579182015b8281111561018657825182559160200191906001019061016b565b50610192929150610196565b5090565b6101b091905b80821115610192576000815560010161019c565b90565b610d6280620001c36000396000f300606060405236156100e35763ffffffff7c010000000000000000000000000000000000000000000000000000000060003504166306fdde0381146100e8578063095ea7b31461017257806312064c34146101a857806318160ddd146101d957806323b872dd146101ec578063313ce567146102145780635a3b7e421461023d5780636a6fe2b51461025057806370a082311461027257806395d89b4114610291578063a0ce552d146102a4578063a8258790146102ba578063a9059cbb146102dc578063b76e76b1146102fe578063cae9ca5114610323578063dd62ed3e14610388575b600080fd5b34156100f357600080fd5b6100fb6103ad565b60405160208082528190810183818151815260200191508051906020019080838360005b8381101561013757808201518382015260200161011f565b50505050905090810190601f1680156101645780820380516001836020036101000a031916815260200191505b509250505060405180910390f35b341561017d57600080fd5b610194600160a060020a036004351660243561044b565b604051901515815260200160405180910390f35b34156101b357600080fd5b6101c7600160a060020a036004351661048d565b60405190815260200160405180910390f35b34156101e457600080fd5b6101c76104a8565b34156101f757600080fd5b610194600160a060020a03600435811690602435166044356104ae565b341561021f57600080fd5b61022761065c565b60405160ff909116815260200160405180910390f35b341561024857600080fd5b6100fb610665565b341561025b57600080fd5b610194600160a060020a03600435166024356106d0565b341561027d57600080fd5b6101c7600160a060020a03600435166107cf565b341561029c57600080fd5b6100fb6107e2565b34156102af57600080fd5b61019460043561084d565b34156102c557600080fd5b610194600160a060020a036004351660243561098d565b34156102e757600080fd5b610194600160a060020a0360043516602435610ad7565b341561030957600080fd5b6101c7600160a060020a0360043581169060243516610b42565b341561032e57600080fd5b61019460048035600160a060020a03169060248035919060649060443590810190830135806020601f82018190048102016040519081016040528181529291906020840183838082843750949650610b6d95505050505050565b341561039357600080fd5b6101c7600160a060020a0360043581169060243516610cb0565b60008054600181600116156101000203166002900480601f0160208091040260200160405190810160405280929190818152602001828054600181600116156101000203166002900480156104435780601f1061041857610100808354040283529160200191610443565b820191906000526020600020905b81548152906001019060200180831161042657829003601f168201915b505050505081565b60008061045783610cc6565b600160a060020a0333811660009081526007602090815260408083209389168352929052208190556001925090505b5092915050565b600160a060020a031660009081526006602052604090205490565b60045490565b6000806104ba83610cc6565b9050600160a060020a03841615156104d55760009150610654565b600160a060020a038516600090815260066020526040902054819010156104ff5760009150610654565b600160a060020a038416600090815260066020526040902054818101101561052a5760009150610654565b600160a060020a03808616600090815260076020908152604080832033909416835292905220548111156105615760009150610654565b600160a060020a03808616600081815260066020908152604080832080548790039055888516808452818420805488019055848452600783528184203390961684529490915290819020805485900390557f6e99c4e2634fe5c5eb594fca0ec009170229e10e94ff526d64311acb43d5aba99084905190815260200160405180910390a383600160a060020a031685600160a060020a03167fddf252ad1be2c89b69c2b068fc378daa952ba7f163c4a11628f55a4df523b3ef8560405190815260200160405180910390a3600080516020610d1783398151915260055460405190815260200160405180910390a1600191505b509392505050565b60025460ff1681565b60038054600181600116156101000203166002900480601f0160208091040260200160405190810160405280929190818152602001828054600181600116156101000203166002900480156104435780601f1061041857610100808354040283529160200191610443565b6000600160a060020a03831615156106ea575060006107c9565b600160a060020a03331660009081526006602052604090205482901015610713575060006107c9565b600160a060020a038316600090815260066020526040902054828101101561073d575060006107c9565b600160a060020a033381166000818152600660205260408082208054879003905592861680825290839020805486019055917f6e99c4e2634fe5c5eb594fca0ec009170229e10e94ff526d64311acb43d5aba99085905190815260200160405180910390a3600080516020610d1783398151915260055460405190815260200160405180910390a15060015b92915050565b60006107c96107dd8361048d565b610ce1565b60018054600181600116156101000203166002900480601f0160208091040260200160405190810160405280929190818152602001828054600181600116156101000203166002900480156104435780601f1061041857610100808354040283529160200191610443565b60008061085983610cc6565b600160a060020a033316600090815260066020526040902054909150819010156108865760009150610987565b6005548190116108995760009150610987565b600160a060020a0333166000908152600660205260409020546108bc9082610d04565b600160a060020a0333166000908152600660205260409020556005546108e29082610d04565b600555600160a060020a0333167fcaee39b10f578f39108b4b9d85bd975f6df84bf23fe5ac55be789d0dbdeba1e78260405190815260200160405180910390a233600160a060020a03167f3546c12ed0f324e9c27715b3fd5156e55a7f761ddb3be2a8fccff18cdcae79eb8460405190815260200160405180910390a2600080516020610d1783398151915260055460405190815260200160405180910390a1600191505b50919050565b60008061099983610cc6565b600160a060020a038516600090815260066020526040902054909150819010156109c65760009150610486565b600160a060020a03808516600090815260076020908152604080832033909416835292905220548111156109fd5760009150610486565b600554819011610a105760009150610486565b600160a060020a03841660008181526006602052604090819020805484900390556005805484900390557fcaee39b10f578f39108b4b9d85bd975f6df84bf23fe5ac55be789d0dbdeba1e79083905190815260200160405180910390a283600160a060020a03167f3546c12ed0f324e9c27715b3fd5156e55a7f761ddb3be2a8fccff18cdcae79eb8460405190815260200160405180910390a2600080516020610d1783398151915260055460405190815260200160405180910390a15060019392505050565b6000806000610ae584610cc6565b9150610af185836106d0565b905084600160a060020a031633600160a060020a03167fddf252ad1be2c89b69c2b068fc378daa952ba7f163c4a11628f55a4df523b3ef8660405190815260200160405180910390a3949350505050565b600160a060020a03918216600090815260076020908152604080832093909416825291909152205490565b6000806000610b7b85610cc6565b9150859050610b8a868361044b565b15610ca75780600160a060020a0316638f4ffcb1338730886040518563ffffffff167c01000000000000000000000000000000000000000000000000000000000281526004018085600160a060020a0316600160a060020a0316815260200184815260200183600160a060020a0316600160a060020a0316815260200180602001828103825283818151815260200191508051906020019080838360005b83811015610c40578082015183820152602001610c28565b50505050905090810190601f168015610c6d5780820380516001836020036101000a031916815260200191505b5095505050505050600060405180830381600087803b1515610c8e57600080fd5b6102c65a03f11515610c9f57600080fd5b505050600192505b50509392505050565b6000610cbf6107dd8484610b42565b9392505050565b6000600454600554811515610cd757fe5b0482029050919050565b6000600454600554811515610cf257fe5b0482811515610cfd57fe5b0492915050565b600082821115610d1057fe5b50900390560027e72187d0826fdd7d9e50816ee8b2c79378aec5244513bf0bbe394bf2abb8bca165627a7a72305820f5b30e31ea7fb3a552cfa5b55967b438b1242444ec0654e27c9b3a06436b11fa0029",
  "source": "pragma solidity ^0.4.11;\n\nimport 'zeppelin-solidity/contracts/math/SafeMath.sol';\nimport \"./HumanERC20TokenInterface.sol\";\n\ncontract ZenoTokenRecipient { function receiveApproval(address from, uint256 value, address token, bytes _extraData); }\n\n/**\n   @title ZenoToken\n   @author Wiebe-Marten Wijnja\n\n   A ZenoToken is a token whose value can be redistributed proportionally\n   across all token holders when someone spends a bit of it.\n\n   ALL RIGHTS RESERVED by Wiebe-Marten Wijnja\n */\ncontract ZenoToken is HumanERC20TokenInterface {\n    /* Public variables of the token */\n    string public standard = 'ZenoToken v0.2.0';\n    uint256 theTotalSupply;\n    uint256 constant originalWhole = 2**255;\n    uint256 currentWhole = originalWhole;\n\n    /* This creates an array with all balances */\n    mapping (address => uint256) raw_balances;\n    mapping (address => mapping (address => uint256)) raw_allowances;\n\n    /* This generates a public event on the blockchain that will notify clients */\n    event Transfer(address indexed from, address indexed to, uint256 value);\n    event RawTransfer(address indexed from, address indexed to, uint256 raw_value);\n\n    /* This notifies clients about the amount redistributet */\n    event Redistribute(address indexed from, uint256 value);\n    event RawRedistribute(address indexed from, uint256 raw_value);\n    event UpdatedWhole(uint256 whole);\n\n    /**\n       @notice Initializes contract with initial supply tokens to the creator of the contract\n     */\n    function ZenoToken(string name, string symbol, uint8 decimals, uint256 totalStartingSupply)\n        HumanERC20TokenInterface(name, symbol, decimals)\n    {\n        theTotalSupply = totalStartingSupply;\n        raw_balances[msg.sender] = currentWhole;\n    }\n\n    /**\n       @notice Returns the total amount of tokens that exist.\n       This is a constant amount, as tokens never get lost (but only proportionally redistributed).\n     */\n    function totalSupply() constant returns (uint256 total_supply) {\n        return theTotalSupply;\n    }\n\n    /**\n       @dev Transforms a balance relative to the `totalSupply` to the balance relative to `currentWhole`.\n       @param balance a number between 0..totalSupply().\n       @return The balance as a number between 0..currentWhole.\n     */\n    function balance2raw(uint256 balance) internal constant returns (uint256 raw_balance) {\n        return balance * (currentWhole / theTotalSupply);\n    }\n\n    /**\n       @dev Transforms a balance relative to the `currentWhole` to the balance relative to `totalSupply`.\n       @param balance a number between 0..currentWhole\n       @return The balance as a number between 0..totalSupply().\n    */\n    function raw2balance(uint256 raw_balance) internal constant returns (uint256 balance) {\n        return raw_balance / (currentWhole / theTotalSupply);\n    }\n\n    /**\n       @notice Returns the balance of `_owner` relative tot `totalSupply`.\n       @param owner The address whose balance to look up.\n       @return The balance as number 0..totalSupply()\n     */\n    function balanceOf(address owner) constant returns (uint256 balance) {\n        return raw2balance(rawBalanceOf(owner));\n    }\n\n    /**\n       @dev Returns the raw balance of `_owner`.\n       This function exists for debug purposes only.\n       @param owner The address whose balance to look up.\n       @return The balance as number 0..currentWhole\n     */\n    function rawBalanceOf(address owner) constant returns (uint256 balance) {\n        return raw_balances[owner];\n    }\n\n    /**\n       @notice Looks up how much `spender` can spend of `owner`'s tokens.\n       @param owner The owner who set up the allowance before\n       @param spender the address that can spend tokens of the owner.\n       @return The remaining balance that still can be spent as a number 0..totalSupply().\n     */\n    function allowance(address owner, address spender) constant returns (uint remaining) {\n        return raw2balance(rawAllowance(owner, spender));\n    }\n\n    /**\n       @dev Looks up how much `spender` can spend of `owner`'s tokens.\n            Debug-only function.\n       @param owner The owner who set up the allowance before\n       @param spender the address that can spend tokens of the owner.\n       @return The remaining balance that still can be spent as a number 0..currentWhole.\n    */\n    function rawAllowance(address owner, address spender) constant returns (uint remaining) {\n        return raw_allowances[owner][spender];\n    }\n\n    /**\n       @notice ERC20-compliant transfer function.\n       @param to The recipient of the tokens\n       @param value the amount of tokens to send.\n       @return `false` if improper call, `true` if succeeded.\n     */\n    function transfer(address to, uint256 value) returns (bool success) {\n        var raw_value = balance2raw(value);\n        bool result =  rawTransfer(to, raw_value);\n        Transfer(msg.sender, to, value);                         // Notify anyone listening that this transfer took place\n        return result;\n    }\n\n    /**\n       @notice Allows you to transfer raw amounts directly.\n               In most cases, you should consider using `transfer(to, value)` instead.\n       @param to The recipient of the tokens\n       @param raw_value the amount of tokens to send, as a number between 0..currentWhole.\n       @return `false` if improper call, `true` if succeeded.\n    */\n    function rawTransfer(address to, uint256 raw_value) returns (bool success) {\n        if (to == 0x0) return false;                                        // Prevent transfer to 0x0 address. Use redistribute() instead\n        if (raw_balances[msg.sender] < raw_value) return false;             // Check if the sender has enough\n        if (raw_balances[to] + raw_value < raw_balances[to]) return false;  // Check for overflows\n\n        raw_balances[msg.sender] -= raw_value;                     // Subtract from the sender\n        raw_balances[to] += raw_value;                            // Add the same to the recipient\n        RawTransfer(msg.sender, to, raw_value);\n        UpdatedWhole(currentWhole);\n\n        return true;\n    }\n\n    /**\n       @notice Allow another person, `spender` to spend some tokens in your behalf\n       @param spender the address that you'll allow to spend some tokens.\n       @param value The amount of tokens that is allowed to be spent.\n    */\n    function approve(address spender, uint256 value) returns (bool success) {\n        var raw_value = balance2raw(value);\n        raw_allowances[msg.sender][spender] = raw_value;\n        return true;\n    }\n\n    // TODO Should we keep this function or remove it?\n    /**\n       @notice Approve and then communicate the approved contract in a single transaction\n         `receiveApproval` is called on the recipient contract.\n    */\n    function approveAndCall(address _spender, uint256 value, bytes _extraData) returns (bool success) {\n        var raw_value = balance2raw(value);\n\n        ZenoTokenRecipient spender = ZenoTokenRecipient(_spender);\n        if (approve(_spender, raw_value)) {\n            spender.receiveApproval(msg.sender, value, this, _extraData);\n            return true;\n        }\n    }\n\n    /**\n       @notice Transfer function for when contracts attempt to transfer\n               as a proxy for another address.\n       @param from The originating address\n       @param to The address to send the value to\n       @param value The amount of tokens to send.\n       @return `true` if succeeded, `false` if there was a problem (an invalid address, an improper value amount, etc).\n    */\n    function transferFrom(address from, address to, uint256 value) returns (bool success) {\n        var raw_value = balance2raw(value);\n\n        if (to == 0x0) return false;                                         // Prevent transfer to 0x0 address. Use redistribute() instead\n        if (raw_balances[from] < raw_value) return false;                    // Check if the sender has enough\n        if (raw_balances[to] + raw_value < raw_balances[to]) return false;  // Check for overflows\n        if (raw_value > raw_allowances[from][msg.sender]) return false;      // Check allowance\n\n        raw_balances[from] -= raw_value;                           // Subtract from the sender\n        raw_balances[to] += raw_value;                             // Add the same to the recipient\n        raw_allowances[from][msg.sender] -= raw_value;\n        RawTransfer(from, to, raw_value);\n        Transfer(from, to, value);\n        UpdatedWhole(currentWhole);\n        return true;\n    }\n\n    /**\n       @notice Redistributes `value` over all token holders proportionally.\n         This is a constant-time operation.\n         Usually, this is called internally by the contract built on top of\n         the ZenoToken, for actions that permanently consume tokens.\n       @param value The amount of tokens to redistribute.\n     */\n    function redistribute(uint256 value) returns (bool success) {\n        var raw_value = balance2raw(value);\n\n        if (raw_balances[msg.sender] < raw_value) return false;     // Check if the sender has enough\n        if (currentWhole <= raw_value) return false;                 // Check if total still has enough\n\n        raw_balances[msg.sender] = SafeMath.sub(raw_balances[msg.sender], raw_value);                      // Subtract from the sender\n        currentWhole = SafeMath.sub(currentWhole, raw_value);                                  // Updates the amount of raw tokens left.\n\n        RawRedistribute(msg.sender, raw_value);\n        Redistribute(msg.sender, value);\n        UpdatedWhole(currentWhole);\n        return true;\n    }\n\n    /**\n       Variant of redistribute that allows a proxy to redistribute some of your tokens for you.\n     */\n    function redistributeFrom(address from, uint256 value) returns (bool success) {\n        var raw_value = balance2raw(value);\n\n        if (raw_balances[from] < raw_value) return false;                 // Check if the sender has enough\n        if (raw_value > raw_allowances[from][msg.sender]) return false;   // Check allowance\n        if (currentWhole <= raw_value) return false;                      // Check if total still has enough\n\n        raw_balances[from] -= raw_value;                                  // Subtract from the sender\n        currentWhole -= raw_value;                                        // Updates the amount of raw tokens left.\n\n        RawRedistribute(from, raw_value);\n        Redistribute(from, value);\n        UpdatedWhole(currentWhole);\n        return true;\n    }\n}\n",
  "sourcePath": "/home/qqwy/Programming/Resilia/fintech_fans/fintechfans_marketplace/contracts/ZenoToken.sol",
  "schemaVersion": "1.0.0",
  "updatedAt": "2017-10-15T14:49:35.915Z"
}